{
  "contractName": "PublicResolver",
  "abi": [
    {
      "inputs": [
        {
          "name": "ensAddr",
          "type": "address"
        }
      ],
      "payable": false,
      "stateMutability": "nonpayable",
      "type": "constructor"
    },
    {
      "anonymous": false,
      "inputs": [
        {
          "indexed": true,
          "name": "node",
          "type": "bytes32"
        },
        {
          "indexed": false,
          "name": "a",
          "type": "address"
        }
      ],
      "name": "AddrChanged",
      "type": "event"
    },
    {
      "anonymous": false,
      "inputs": [
        {
          "indexed": true,
          "name": "node",
          "type": "bytes32"
        },
        {
          "indexed": false,
          "name": "hash",
          "type": "bytes32"
        }
      ],
      "name": "ContentChanged",
      "type": "event"
    },
    {
      "anonymous": false,
      "inputs": [
        {
          "indexed": true,
          "name": "node",
          "type": "bytes32"
        },
        {
          "indexed": false,
          "name": "name",
          "type": "string"
        }
      ],
      "name": "NameChanged",
      "type": "event"
    },
    {
      "anonymous": false,
      "inputs": [
        {
          "indexed": true,
          "name": "node",
          "type": "bytes32"
        },
        {
          "indexed": true,
          "name": "contentType",
          "type": "uint256"
        }
      ],
      "name": "ABIChanged",
      "type": "event"
    },
    {
      "anonymous": false,
      "inputs": [
        {
          "indexed": true,
          "name": "node",
          "type": "bytes32"
        },
        {
          "indexed": false,
          "name": "x",
          "type": "bytes32"
        },
        {
          "indexed": false,
          "name": "y",
          "type": "bytes32"
        }
      ],
      "name": "PubkeyChanged",
      "type": "event"
    },
    {
      "anonymous": false,
      "inputs": [
        {
          "indexed": true,
          "name": "node",
          "type": "bytes32"
        },
        {
          "indexed": false,
          "name": "indexedKey",
          "type": "string"
        },
        {
          "indexed": false,
          "name": "key",
          "type": "string"
        }
      ],
      "name": "TextChanged",
      "type": "event"
    },
    {
      "anonymous": false,
      "inputs": [
        {
          "indexed": true,
          "name": "node",
          "type": "bytes32"
        },
        {
          "indexed": false,
          "name": "hash",
          "type": "bytes"
        }
      ],
      "name": "MultihashChanged",
      "type": "event"
    },
    {
      "constant": false,
      "inputs": [
        {
          "name": "node",
          "type": "bytes32"
        },
        {
          "name": "addr",
          "type": "address"
        },
        {
          "name": "content",
          "type": "bytes32"
        },
        {
          "name": "multihash",
          "type": "bytes"
        },
        {
          "name": "x",
          "type": "bytes32"
        },
        {
          "name": "y",
          "type": "bytes32"
        },
        {
          "name": "name",
          "type": "string"
        }
      ],
      "name": "setAll",
      "outputs": [],
      "payable": false,
      "stateMutability": "nonpayable",
      "type": "function"
    },
    {
      "constant": true,
      "inputs": [
        {
          "name": "node",
          "type": "bytes32"
        }
      ],
      "name": "getAll",
      "outputs": [
        {
          "name": "addr",
          "type": "address"
        },
        {
          "name": "content",
          "type": "bytes32"
        },
        {
          "name": "multihash",
          "type": "bytes"
        },
        {
          "name": "x",
          "type": "bytes32"
        },
        {
          "name": "y",
          "type": "bytes32"
        },
        {
          "name": "name",
          "type": "string"
        }
      ],
      "payable": false,
      "stateMutability": "view",
      "type": "function"
    },
    {
      "constant": false,
      "inputs": [
        {
          "name": "node",
          "type": "bytes32"
        },
        {
          "name": "addr",
          "type": "address"
        }
      ],
      "name": "setAddr",
      "outputs": [],
      "payable": false,
      "stateMutability": "nonpayable",
      "type": "function"
    },
    {
      "constant": false,
      "inputs": [
        {
          "name": "node",
          "type": "bytes32"
        },
        {
          "name": "hash",
          "type": "bytes32"
        }
      ],
      "name": "setContent",
      "outputs": [],
      "payable": false,
      "stateMutability": "nonpayable",
      "type": "function"
    },
    {
      "constant": false,
      "inputs": [
        {
          "name": "node",
          "type": "bytes32"
        },
        {
          "name": "hash",
          "type": "bytes"
        }
      ],
      "name": "setMultihash",
      "outputs": [],
      "payable": false,
      "stateMutability": "nonpayable",
      "type": "function"
    },
    {
      "constant": false,
      "inputs": [
        {
          "name": "node",
          "type": "bytes32"
        },
        {
          "name": "name",
          "type": "string"
        }
      ],
      "name": "setName",
      "outputs": [],
      "payable": false,
      "stateMutability": "nonpayable",
      "type": "function"
    },
    {
      "constant": false,
      "inputs": [
        {
          "name": "node",
          "type": "bytes32"
        },
        {
          "name": "contentType",
          "type": "uint256"
        },
        {
          "name": "data",
          "type": "bytes"
        }
      ],
      "name": "setABI",
      "outputs": [],
      "payable": false,
      "stateMutability": "nonpayable",
      "type": "function"
    },
    {
      "constant": false,
      "inputs": [
        {
          "name": "node",
          "type": "bytes32"
        },
        {
          "name": "x",
          "type": "bytes32"
        },
        {
          "name": "y",
          "type": "bytes32"
        }
      ],
      "name": "setPubkey",
      "outputs": [],
      "payable": false,
      "stateMutability": "nonpayable",
      "type": "function"
    },
    {
      "constant": false,
      "inputs": [
        {
          "name": "node",
          "type": "bytes32"
        },
        {
          "name": "key",
          "type": "string"
        },
        {
          "name": "value",
          "type": "string"
        }
      ],
      "name": "setText",
      "outputs": [],
      "payable": false,
      "stateMutability": "nonpayable",
      "type": "function"
    },
    {
      "constant": true,
      "inputs": [
        {
          "name": "node",
          "type": "bytes32"
        },
        {
          "name": "key",
          "type": "string"
        }
      ],
      "name": "text",
      "outputs": [
        {
          "name": "",
          "type": "string"
        }
      ],
      "payable": false,
      "stateMutability": "view",
      "type": "function"
    },
    {
      "constant": true,
      "inputs": [
        {
          "name": "node",
          "type": "bytes32"
        }
      ],
      "name": "pubkey",
      "outputs": [
        {
          "name": "x",
          "type": "bytes32"
        },
        {
          "name": "y",
          "type": "bytes32"
        }
      ],
      "payable": false,
      "stateMutability": "view",
      "type": "function"
    },
    {
      "constant": true,
      "inputs": [
        {
          "name": "node",
          "type": "bytes32"
        }
      ],
      "name": "name",
      "outputs": [
        {
          "name": "",
          "type": "string"
        }
      ],
      "payable": false,
      "stateMutability": "view",
      "type": "function"
    },
    {
      "constant": true,
      "inputs": [
        {
          "name": "node",
          "type": "bytes32"
        }
      ],
      "name": "content",
      "outputs": [
        {
          "name": "",
          "type": "bytes32"
        }
      ],
      "payable": false,
      "stateMutability": "view",
      "type": "function"
    },
    {
      "constant": true,
      "inputs": [
        {
          "name": "node",
          "type": "bytes32"
        }
      ],
      "name": "multihash",
      "outputs": [
        {
          "name": "",
          "type": "bytes"
        }
      ],
      "payable": false,
      "stateMutability": "view",
      "type": "function"
    },
    {
      "constant": true,
      "inputs": [
        {
          "name": "node",
          "type": "bytes32"
        }
      ],
      "name": "addr",
      "outputs": [
        {
          "name": "",
          "type": "address"
        }
      ],
      "payable": false,
      "stateMutability": "view",
      "type": "function"
    },
    {
      "constant": true,
      "inputs": [
        {
          "name": "interfaceID",
          "type": "bytes4"
        }
      ],
      "name": "supportsInterface",
      "outputs": [
        {
          "name": "",
          "type": "bool"
        }
      ],
      "payable": false,
      "stateMutability": "pure",
      "type": "function"
    }
  ],
  "bytecode": "0x608060405234801561001057600080fd5b506040516020806122ad8339810180604052602081101561003057600080fd5b8101908080519060200190929190505050806000806101000a81548173ffffffffffffffffffffffffffffffffffffffff021916908373ffffffffffffffffffffffffffffffffffffffff1602179055505061221c806100916000396000f3fe608060405234801561001057600080fd5b50600436106101005760003560e01c80637737221311610097578063c869023311610066578063c8690233146109c8578063d5fa2b0014610a11578063e89401a114610a5f578063ed80e1f714610b0657610100565b8063773722131461066c5780639f3a206d14610731578063aa4cb547146108cb578063c3d014d61461099057610100565b80633b3b57de116100d35780633b3b57de1461034a57806359d1d43c146103b8578063623195b0146104f6578063691f3431146105c557610100565b806301ffc9a71461010557806310f13a8c1461016a57806329cd62ea146102c65780632dff694114610308575b600080fd5b6101506004803603602081101561011b57600080fd5b8101908080357bffffffffffffffffffffffffffffffffffffffffffffffffffffffff19169060200190929190505050610c61565b604051808215151515815260200191505060405180910390f35b6102c46004803603606081101561018057600080fd5b8101908080359060200190929190803590602001906401000000008111156101a757600080fd5b8201836020820111156101b957600080fd5b803590602001918460018302840111640100000000831117156101db57600080fd5b91908080601f016020809104026020016040519081016040528093929190818152602001838380828437600081840152601f19601f8201169050808301925050505050505091929192908035906020019064010000000081111561023e57600080fd5b82018360208201111561025057600080fd5b8035906020019184600183028401116401000000008311171561027257600080fd5b91908080601f016020809104026020016040519081016040528093929190818152602001838380828437600081840152601f19601f820116905080830192505050505050509192919290505050610edb565b005b610306600480360360608110156102dc57600080fd5b81019080803590602001909291908035906020019092919080359060200190929190505050611162565b005b6103346004803603602081101561031e57600080fd5b81019080803590602001909291905050506112cf565b6040518082815260200191505060405180910390f35b6103766004803603602081101561036057600080fd5b81019080803590602001909291905050506112ef565b604051808273ffffffffffffffffffffffffffffffffffffffff1673ffffffffffffffffffffffffffffffffffffffff16815260200191505060405180910390f35b61047b600480360360408110156103ce57600080fd5b8101908080359060200190929190803590602001906401000000008111156103f557600080fd5b82018360208201111561040757600080fd5b8035906020019184600183028401116401000000008311171561042957600080fd5b91908080601f016020809104026020016040519081016040528093929190818152602001838380828437600081840152601f19601f82011690508083019250505050505050919291929050505061132f565b6040518080602001828103825283818151815260200191508051906020019080838360005b838110156104bb5780820151818401526020810190506104a0565b50505050905090810190601f1680156104e85780820380516001836020036101000a031916815260200191505b509250505060405180910390f35b6105c36004803603606081101561050c57600080fd5b8101908080359060200190929190803590602001909291908035906020019064010000000081111561053d57600080fd5b82018360208201111561054f57600080fd5b8035906020019184600183028401116401000000008311171561057157600080fd5b91908080601f016020809104026020016040519081016040528093929190818152602001838380828437600081840152601f19601f82011690508083019250505050505050919291929050505061144f565b005b6105f1600480360360208110156105db57600080fd5b81019080803590602001909291905050506115b6565b6040518080602001828103825283818151815260200191508051906020019080838360005b83811015610631578082015181840152602081019050610616565b50505050905090810190601f16801561065e5780820380516001836020036101000a031916815260200191505b509250505060405180910390f35b61072f6004803603604081101561068257600080fd5b8101908080359060200190929190803590602001906401000000008111156106a957600080fd5b8201836020820111156106bb57600080fd5b803590602001918460018302840111640100000000831117156106dd57600080fd5b91908080601f016020809104026020016040519081016040528093929190818152602001838380828437600081840152601f19601f82011690508083019250505050505050919291929050505061166e565b005b6108c9600480360360e081101561074757600080fd5b8101908080359060200190929190803573ffffffffffffffffffffffffffffffffffffffff169060200190929190803590602001909291908035906020019064010000000081111561079857600080fd5b8201836020820111156107aa57600080fd5b803590602001918460018302840111640100000000831117156107cc57600080fd5b91908080601f016020809104026020016040519081016040528093929190818152602001838380828437600081840152601f19601f82011690508083019250505050505050919291929080359060200190929190803590602001909291908035906020019064010000000081111561084357600080fd5b82018360208201111561085557600080fd5b8035906020019184600183028401116401000000008311171561087757600080fd5b91908080601f016020809104026020016040519081016040528093929190818152602001838380828437600081840152601f19601f820116905080830192505050505050509192919290505050611820565b005b61098e600480360360408110156108e157600080fd5b81019080803590602001909291908035906020019064010000000081111561090857600080fd5b82018360208201111561091a57600080fd5b8035906020019184600183028401116401000000008311171561093c57600080fd5b91908080601f016020809104026020016040519081016040528093929190818152602001838380828437600081840152601f19601f820116905080830192505050505050509192919290505050611942565b005b6109c6600480360360408110156109a657600080fd5b810190808035906020019092919080359060200190929190505050611af4565b005b6109f4600480360360208110156109de57600080fd5b8101908080359060200190929190505050611c31565b604051808381526020018281526020019250505060405180910390f35b610a5d60048036036040811015610a2757600080fd5b8101908080359060200190929190803573ffffffffffffffffffffffffffffffffffffffff169060200190929190505050611c71565b005b610a8b60048036036020811015610a7557600080fd5b8101908080359060200190929190505050611e14565b6040518080602001828103825283818151815260200191508051906020019080838360005b83811015610acb578082015181840152602081019050610ab0565b50505050905090810190601f168015610af85780820380516001836020036101000a031916815260200191505b509250505060405180910390f35b610b3260048036036020811015610b1c57600080fd5b8101908080359060200190929190505050611ecc565b604051808773ffffffffffffffffffffffffffffffffffffffff1673ffffffffffffffffffffffffffffffffffffffff1681526020018681526020018060200185815260200184815260200180602001838103835287818151815260200191508051906020019080838360005b83811015610bba578082015181840152602081019050610b9f565b50505050905090810190601f168015610be75780820380516001836020036101000a031916815260200191505b50838103825284818151815260200191508051906020019080838360005b83811015610c20578082015181840152602081019050610c05565b50505050905090810190601f168015610c4d5780820380516001836020036101000a031916815260200191505b509850505050505050505060405180910390f35b6000633b3b57de60e01b7bffffffffffffffffffffffffffffffffffffffffffffffffffffffff1916827bffffffffffffffffffffffffffffffffffffffffffffffffffffffff19161480610cfa575063d8389dc560e01b7bffffffffffffffffffffffffffffffffffffffffffffffffffffffff1916827bffffffffffffffffffffffffffffffffffffffffffffffffffffffff1916145b80610d49575063691f343160e01b7bffffffffffffffffffffffffffffffffffffffffffffffffffffffff1916827bffffffffffffffffffffffffffffffffffffffffffffffffffffffff1916145b80610d985750632203ab5660e01b7bffffffffffffffffffffffffffffffffffffffffffffffffffffffff1916827bffffffffffffffffffffffffffffffffffffffffffffffffffffffff1916145b80610de7575063c869023360e01b7bffffffffffffffffffffffffffffffffffffffffffffffffffffffff1916827bffffffffffffffffffffffffffffffffffffffffffffffffffffffff1916145b80610e3657506359d1d43c60e01b7bffffffffffffffffffffffffffffffffffffffffffffffffffffffff1916827bffffffffffffffffffffffffffffffffffffffffffffffffffffffff1916145b80610e85575063e89401a160e01b7bffffffffffffffffffffffffffffffffffffffffffffffffffffffff1916827bffffffffffffffffffffffffffffffffffffffffffffffffffffffff1916145b80610ed457506301ffc9a760e01b7bffffffffffffffffffffffffffffffffffffffffffffffffffffffff1916827bffffffffffffffffffffffffffffffffffffffffffffffffffffffff1916145b9050919050565b823373ffffffffffffffffffffffffffffffffffffffff166000809054906101000a900473ffffffffffffffffffffffffffffffffffffffff1673ffffffffffffffffffffffffffffffffffffffff166302571be3836040518263ffffffff1660e01b81526004018082815260200191505060206040518083038186803b158015610f6557600080fd5b505afa158015610f79573d6000803e3d6000fd5b505050506040513d6020811015610f8f57600080fd5b810190808051906020019092919050505073ffffffffffffffffffffffffffffffffffffffff1614610fc057600080fd5b8160016000868152602001908152602001600020600501846040518082805190602001908083835b6020831061100b5780518252602082019150602081019050602083039250610fe8565b6001836020036101000a038019825116818451168082178552505050505050905001915050908152602001604051809103902090805190602001906110519291906120cb565b50837fd8c9334b1a9c2f9da342a0a2b32629c1a229b6445dad78947f674b44444a75508485604051808060200180602001838103835285818151815260200191508051906020019080838360005b838110156110ba57808201518184015260208101905061109f565b50505050905090810190601f1680156110e75780820380516001836020036101000a031916815260200191505b50838103825284818151815260200191508051906020019080838360005b83811015611120578082015181840152602081019050611105565b50505050905090810190601f16801561114d5780820380516001836020036101000a031916815260200191505b5094505050505060405180910390a250505050565b823373ffffffffffffffffffffffffffffffffffffffff166000809054906101000a900473ffffffffffffffffffffffffffffffffffffffff1673ffffffffffffffffffffffffffffffffffffffff166302571be3836040518263ffffffff1660e01b81526004018082815260200191505060206040518083038186803b1580156111ec57600080fd5b505afa158015611200573d6000803e3d6000fd5b505050506040513d602081101561121657600080fd5b810190808051906020019092919050505073ffffffffffffffffffffffffffffffffffffffff161461124757600080fd5b604051806040016040528084815260200183815250600160008681526020019081526020016000206003016000820151816000015560208201518160010155905050837f1d6f5e03d3f63eb58751986629a5439baee5079ff04f345becb66e23eb154e468484604051808381526020018281526020019250505060405180910390a250505050565b600060016000838152602001908152602001600020600101549050919050565b60006001600083815260200190815260200160002060000160009054906101000a900473ffffffffffffffffffffffffffffffffffffffff169050919050565b606060016000848152602001908152602001600020600501826040518082805190602001908083835b6020831061137b5780518252602082019150602081019050602083039250611358565b6001836020036101000a03801982511681845116808217855250505050505090500191505090815260200160405180910390208054600181600116156101000203166002900480601f0160208091040260200160405190810160405280929190818152602001828054600181600116156101000203166002900480156114425780601f1061141757610100808354040283529160200191611442565b820191906000526020600020905b81548152906001019060200180831161142557829003601f168201915b5050505050905092915050565b823373ffffffffffffffffffffffffffffffffffffffff166000809054906101000a900473ffffffffffffffffffffffffffffffffffffffff1673ffffffffffffffffffffffffffffffffffffffff166302571be3836040518263ffffffff1660e01b81526004018082815260200191505060206040518083038186803b1580156114d957600080fd5b505afa1580156114ed573d6000803e3d6000fd5b505050506040513d602081101561150357600080fd5b810190808051906020019092919050505073ffffffffffffffffffffffffffffffffffffffff161461153457600080fd5b60008360018503161461154657600080fd5b81600160008681526020019081526020016000206006016000858152602001908152602001600020908051906020019061158192919061214b565b5082847faa121bbeef5f32f5961a2a28966e769023910fc9479059ee3495d4c1a696efe360405160405180910390a350505050565b6060600160008381526020019081526020016000206002018054600181600116156101000203166002900480601f0160208091040260200160405190810160405280929190818152602001828054600181600116156101000203166002900480156116625780601f1061163757610100808354040283529160200191611662565b820191906000526020600020905b81548152906001019060200180831161164557829003601f168201915b50505050509050919050565b813373ffffffffffffffffffffffffffffffffffffffff166000809054906101000a900473ffffffffffffffffffffffffffffffffffffffff1673ffffffffffffffffffffffffffffffffffffffff166302571be3836040518263ffffffff1660e01b81526004018082815260200191505060206040518083038186803b1580156116f857600080fd5b505afa15801561170c573d6000803e3d6000fd5b505050506040513d602081101561172257600080fd5b810190808051906020019092919050505073ffffffffffffffffffffffffffffffffffffffff161461175357600080fd5b8160016000858152602001908152602001600020600201908051906020019061177d9291906120cb565b50827fb7d29e911041e8d9b843369e890bcb72c9388692ba48b65ac54e7214c4c348f7836040518080602001828103825283818151815260200191508051906020019080838360005b838110156117e15780820151818401526020810190506117c6565b50505050905090810190601f16801561180e5780820380516001836020036101000a031916815260200191505b509250505060405180910390a2505050565b863373ffffffffffffffffffffffffffffffffffffffff166000809054906101000a900473ffffffffffffffffffffffffffffffffffffffff1673ffffffffffffffffffffffffffffffffffffffff166302571be3836040518263ffffffff1660e01b81526004018082815260200191505060206040518083038186803b1580156118aa57600080fd5b505afa1580156118be573d6000803e3d6000fd5b505050506040513d60208110156118d457600080fd5b810190808051906020019092919050505073ffffffffffffffffffffffffffffffffffffffff161461190557600080fd5b61190f8888611c71565b6119198887611af4565b6119238886611942565b61192e888585611162565b611938888361166e565b5050505050505050565b813373ffffffffffffffffffffffffffffffffffffffff166000809054906101000a900473ffffffffffffffffffffffffffffffffffffffff1673ffffffffffffffffffffffffffffffffffffffff166302571be3836040518263ffffffff1660e01b81526004018082815260200191505060206040518083038186803b1580156119cc57600080fd5b505afa1580156119e0573d6000803e3d6000fd5b505050506040513d60208110156119f657600080fd5b810190808051906020019092919050505073ffffffffffffffffffffffffffffffffffffffff1614611a2757600080fd5b81600160008581526020019081526020016000206007019080519060200190611a5192919061214b565b50827fc0b0fc07269fc2749adada3221c095a1d2187b2d075b51c915857b520f3a5021836040518080602001828103825283818151815260200191508051906020019080838360005b83811015611ab5578082015181840152602081019050611a9a565b50505050905090810190601f168015611ae25780820380516001836020036101000a031916815260200191505b509250505060405180910390a2505050565b813373ffffffffffffffffffffffffffffffffffffffff166000809054906101000a900473ffffffffffffffffffffffffffffffffffffffff1673ffffffffffffffffffffffffffffffffffffffff166302571be3836040518263ffffffff1660e01b81526004018082815260200191505060206040518083038186803b158015611b7e57600080fd5b505afa158015611b92573d6000803e3d6000fd5b505050506040513d6020811015611ba857600080fd5b810190808051906020019092919050505073ffffffffffffffffffffffffffffffffffffffff1614611bd957600080fd5b816001600085815260200190815260200160002060010181905550827f0424b6fe0d9c3bdbece0e7879dc241bb0c22e900be8b6c168b4ee08bd9bf83bc836040518082815260200191505060405180910390a2505050565b6000806001600084815260200190815260200160002060030160000154600160008581526020019081526020016000206003016001015491509150915091565b813373ffffffffffffffffffffffffffffffffffffffff166000809054906101000a900473ffffffffffffffffffffffffffffffffffffffff1673ffffffffffffffffffffffffffffffffffffffff166302571be3836040518263ffffffff1660e01b81526004018082815260200191505060206040518083038186803b158015611cfb57600080fd5b505afa158015611d0f573d6000803e3d6000fd5b505050506040513d6020811015611d2557600080fd5b810190808051906020019092919050505073ffffffffffffffffffffffffffffffffffffffff1614611d5657600080fd5b816001600085815260200190815260200160002060000160006101000a81548173ffffffffffffffffffffffffffffffffffffffff021916908373ffffffffffffffffffffffffffffffffffffffff160217905550827f52d7d861f09ab3d26239d492e8968629f95e9e318cf0b73bfddc441522a15fd283604051808273ffffffffffffffffffffffffffffffffffffffff1673ffffffffffffffffffffffffffffffffffffffff16815260200191505060405180910390a2505050565b6060600160008381526020019081526020016000206007018054600181600116156101000203166002900480601f016020809104026020016040519081016040528092919081815260200182805460018160011615610100020316600290048015611ec05780601f10611e9557610100808354040283529160200191611ec0565b820191906000526020600020905b815481529060010190602001808311611ea357829003601f168201915b50505050509050919050565b600080606060008060606001600088815260200190815260200160002060000160009054906101000a900473ffffffffffffffffffffffffffffffffffffffff16955060016000888152602001908152602001600020600101549450600160008881526020019081526020016000206007018054600181600116156101000203166002900480601f016020809104026020016040519081016040528092919081815260200182805460018160011615610100020316600290048015611fd25780601f10611fa757610100808354040283529160200191611fd2565b820191906000526020600020905b815481529060010190602001808311611fb557829003601f168201915b505050505093506001600088815260200190815260200160002060030160000154925060016000888152602001908152602001600020600301600101549150600160008881526020019081526020016000206002018054600181600116156101000203166002900480601f0160208091040260200160405190810160405280929190818152602001828054600181600116156101000203166002900480156120bb5780601f10612090576101008083540402835291602001916120bb565b820191906000526020600020905b81548152906001019060200180831161209e57829003601f168201915b5050505050905091939550919395565b828054600181600116156101000203166002900490600052602060002090601f016020900481019282601f1061210c57805160ff191683800117855561213a565b8280016001018555821561213a579182015b8281111561213957825182559160200191906001019061211e565b5b50905061214791906121cb565b5090565b828054600181600116156101000203166002900490600052602060002090601f016020900481019282601f1061218c57805160ff19168380011785556121ba565b828001600101855582156121ba579182015b828111156121b957825182559160200191906001019061219e565b5b5090506121c791906121cb565b5090565b6121ed91905b808211156121e95760008160009055506001016121d1565b5090565b9056fea165627a7a72305820cbb6e8594048f87301e5bbadbb6d6c111f18a3348f07d3537415269c5beb13f50029",
  "source": "pragma solidity ^0.5.0;\n\nimport \"./ENS.sol\";\n\n/**\n * A simple resolver anyone can use; only allows the owner of a node to set its\n * address.\n */\ncontract PublicResolver {\n\n    bytes4 constant INTERFACE_META_ID = 0x01ffc9a7;\n    bytes4 constant ADDR_INTERFACE_ID = 0x3b3b57de;\n    bytes4 constant CONTENT_INTERFACE_ID = 0xd8389dc5;\n    bytes4 constant NAME_INTERFACE_ID = 0x691f3431;\n    bytes4 constant ABI_INTERFACE_ID = 0x2203ab56;\n    bytes4 constant PUBKEY_INTERFACE_ID = 0xc8690233;\n    bytes4 constant TEXT_INTERFACE_ID = 0x59d1d43c;\n    bytes4 constant MULTIHASH_INTERFACE_ID = 0xe89401a1;\n\n    event AddrChanged(bytes32 indexed node, address a);\n    event ContentChanged(bytes32 indexed node, bytes32 hash);\n    event NameChanged(bytes32 indexed node, string name);\n    event ABIChanged(bytes32 indexed node, uint256 indexed contentType);\n    event PubkeyChanged(bytes32 indexed node, bytes32 x, bytes32 y);\n    event TextChanged(bytes32 indexed node, string indexedKey, string key);\n    event MultihashChanged(bytes32 indexed node, bytes hash);\n\n    struct PublicKey {\n        bytes32 x;\n        bytes32 y;\n    }\n\n    struct Record {\n        address addr;\n        bytes32 content;\n        string name;\n        PublicKey pubkey;\n        mapping(string=>string) text;\n        mapping(uint256=>bytes) abis;\n        bytes multihash;\n    }\n\n    ENS ens;\n\n    mapping (bytes32 => Record) records;\n\n    modifier only_owner(bytes32 node) {\n        require(ens.owner(node) == msg.sender);\n        _;\n    }\n\n    /**\n     * Constructor.\n     * @param ensAddr The ENS registrar contract.\n     */\n\n    constructor(ENS ensAddr) public {\n        ens = ensAddr;\n    }\n\n\t/**\n     * Sets all required params in one attempt\n     * May only be called by the owner of that node in the ENS registry.\n     * @param node The node to update.\n     * @param addr The address to set.\n\t * @param content The content hash to set\n\t * @param multihash The multihash to set\n     * @param x the X coordinate of the curve point for the public key.\n     * @param y the Y coordinate of the curve point for the public key.\n\t * @param name The name to set.\n    */\n    function setAll(bytes32 node, address addr, bytes32 content,  bytes memory multihash, bytes32 x, bytes32 y, string memory name) public only_owner(node) {\n\t\t setAddr(node, addr);\n\t\t setContent(node, content);\n\t\t setMultihash(node, multihash);\n\t\t setPubkey(node, x, y);\n\t\t setName(node, name);\n    }\n\tfunction getAll(bytes32 node) public view returns(address addr, bytes32 content, bytes memory multihash, bytes32 x, bytes32 y, string memory name) {\n\t\t addr = records[node].addr;\n\t\t content = records[node].content;\n\t\t multihash = records[node].multihash;\n\t\t x = records[node].pubkey.x;\n\t\t y = records[node].pubkey.y;\n\t\t name = records[node].name;\n    }\n\n    /**\n     * Sets the address associated with an ENS node.\n     * May only be called by the owner of that node in the ENS registry.\n     * @param node The node to update.\n     * @param addr The address to set.\n     */\n    function setAddr(bytes32 node, address addr) public only_owner(node) {\n        records[node].addr = addr;\n        emit AddrChanged(node, addr);\n    }\n\n    /**\n     * Sets the content hash associated with an ENS node.\n     * May only be called by the owner of that node in the ENS registry.\n     * Note that this resource type is not standardized, and will likely change\n     * in future to a resource type based on multihash.\n     * @param node The node to update.\n     * @param hash The content hash to set\n     */\n    function setContent(bytes32 node, bytes32 hash) public only_owner(node) {\n        records[node].content = hash;\n        emit ContentChanged(node, hash);\n    }\n\n    /**\n     * Sets the multihash associated with an ENS node.\n     * May only be called by the owner of that node in the ENS registry.\n     * @param node The node to update.\n     * @param hash The multihash to set\n     */\n    function setMultihash(bytes32 node, bytes memory hash) public only_owner(node) {\n        records[node].multihash = hash;\n        emit MultihashChanged(node, hash);\n    }\n    \n    /**\n     * Sets the name associated with an ENS node, for reverse records.\n     * May only be called by the owner of that node in the ENS registry.\n     * @param node The node to update.\n     * @param name The name to set.\n     */\n    function setName(bytes32 node, string memory name) public only_owner(node) {\n        records[node].name = name;\n        emit NameChanged(node, name);\n    }\n\n    /**\n     * Sets the ABI associated with an ENS node.\n     * Nodes may have one ABI of each content type. To remove an ABI, set it to\n     * the empty string.\n     * @param node The node to update.\n     * @param contentType The content type of the ABI\n     * @param data The ABI data.\n     */\n    function setABI(bytes32 node, uint256 contentType, bytes memory data) public only_owner(node) {\n        // Content types must be powers of 2\n        require(((contentType - 1) & contentType) == 0);\n        \n        records[node].abis[contentType] = data;\n        emit ABIChanged(node, contentType);\n    }\n    \n    /**\n     * Sets the SECP256k1 public key associated with an ENS node.\n     * @param node The ENS node to query\n     * @param x the X coordinate of the curve point for the public key.\n     * @param y the Y coordinate of the curve point for the public key.\n     */\n    function setPubkey(bytes32 node, bytes32 x, bytes32 y) public only_owner(node) {\n        records[node].pubkey = PublicKey(x, y);\n        emit PubkeyChanged(node, x, y);\n    }\n\n    /**\n     * Sets the text data associated with an ENS node and key.\n     * May only be called by the owner of that node in the ENS registry.\n     * @param node The node to update.\n     * @param key The key to set.\n     * @param value The text data value to set.\n     */\n    function setText(bytes32 node, string memory key, string memory value) public only_owner(node) {\n        records[node].text[key] = value;\n        emit TextChanged(node, key, key);\n    }\n\n    /**\n     * Returns the text data associated with an ENS node and key.\n     * @param node The ENS node to query.\n     * @param key The text data key to query.\n     * @return The associated text data.\n     */\n    function text(bytes32 node, string memory key) public view returns (string memory) {\n        return records[node].text[key];\n    }\n\n    /**\n     * Returns the SECP256k1 public key associated with an ENS node.\n     * Defined in EIP 619.\n     * @param node The ENS node to query\n     * @return x, y the X and Y coordinates of the curve point for the public key.\n     */\n    function pubkey(bytes32 node) public view returns (bytes32 x, bytes32 y) {\n        return (records[node].pubkey.x, records[node].pubkey.y);\n    }\n\n    // /**\n    //  * Returns the ABI associated with an ENS node.\n    //  * Defined in EIP205.\n    //  * @param node The ENS node to query\n    //  * @param contentTypes A bitwise OR of the ABI formats accepted by the caller.\n    //  * @return contentType The content type of the return value\n    //  * @return data The ABI data\n    //  */\n    // function ABI(bytes32 node, uint256 contentTypes) public view returns (uint256 contentType, bytes memory data) {\n    //     Record storage record = records[node];\n    //     for (contentType = 1; contentType <= contentTypes; contentType <<= 1) {\n    //         if ((contentType & contentTypes) != 0 && record.abis[contentType].length > 0) {\n    //             data = record.abis[contentType];\n    //             return;\n    //         }\n    //     }\n    //     contentType = 0;\n    // }\n\n    /**\n     * Returns the name associated with an ENS node, for reverse records.\n     * Defined in EIP181.\n     * @param node The ENS node to query.\n     * @return The associated name.\n     */\n    function name(bytes32 node) public view returns (string memory) {\n        return records[node].name;\n    }\n\n    /**\n     * Returns the content hash associated with an ENS node.\n     * Note that this resource type is not standardized, and will likely change\n     * in future to a resource type based on multihash.\n     * @param node The ENS node to query.\n     * @return The associated content hash.\n     */\n    function content(bytes32 node) public view returns (bytes32) {\n        return records[node].content;\n    }\n\n    /**\n     * Returns the multihash associated with an ENS node.\n     * @param node The ENS node to query.\n     * @return The associated multihash.\n     */\n    function multihash(bytes32 node) public view returns (bytes memory) {\n        return records[node].multihash;\n    }\n\n    /**\n     * Returns the address associated with an ENS node.\n     * @param node The ENS node to query.\n     * @return The associated address.\n     */\n    function addr(bytes32 node) public view returns (address) {\n        return records[node].addr;\n    }\n\n    /**\n     * Returns true if the resolver implements the interface specified by the provided hash.\n     * @param interfaceID The ID of the interface to check for.\n     * @return True if the contract implements the requested interface.\n     */\n    function supportsInterface(bytes4 interfaceID) public pure returns (bool) {\n        return interfaceID == ADDR_INTERFACE_ID ||\n        interfaceID == CONTENT_INTERFACE_ID ||\n        interfaceID == NAME_INTERFACE_ID ||\n        interfaceID == ABI_INTERFACE_ID ||\n        interfaceID == PUBKEY_INTERFACE_ID ||\n        interfaceID == TEXT_INTERFACE_ID ||\n        interfaceID == MULTIHASH_INTERFACE_ID ||\n        interfaceID == INTERFACE_META_ID;\n    }\n}\n",
  "sourcePath": "/Users/sig/Code/df/fds.js/contracts/PublicResolver.sol",
  "compiler": {
    "name": "solc",
    "version": "0.5.8+commit.23d335f2.Emscripten.clang"
  },
  "schemaVersion": "3.0.11",
  "updatedAt": "2019-09-10T12:40:10.337Z",
  "devdoc": {
    "methods": {
      "addr(bytes32)": {
        "params": {
          "node": "The ENS node to query."
        },
        "return": "The associated address."
      },
      "constructor": {
        "params": {
          "ensAddr": "The ENS registrar contract."
        }
      },
      "content(bytes32)": {
        "params": {
          "node": "The ENS node to query."
        },
        "return": "The associated content hash."
      },
      "multihash(bytes32)": {
        "params": {
          "node": "The ENS node to query."
        },
        "return": "The associated multihash."
      },
      "name(bytes32)": {
        "params": {
          "node": "The ENS node to query."
        },
        "return": "The associated name."
      },
      "pubkey(bytes32)": {
        "params": {
          "node": "The ENS node to query"
        },
        "return": "x, y the X and Y coordinates of the curve point for the public key."
      },
      "setABI(bytes32,uint256,bytes)": {
        "params": {
          "contentType": "The content type of the ABI",
          "data": "The ABI data.",
          "node": "The node to update."
        }
      },
      "setAddr(bytes32,address)": {
        "params": {
          "addr": "The address to set.",
          "node": "The node to update."
        }
      },
      "setAll(bytes32,address,bytes32,bytes,bytes32,bytes32,string)": {
        "params": {
          "addr": "The address to set.",
          "content": "The content hash to set",
          "multihash": "The multihash to set",
          "name": "The name to set.",
          "node": "The node to update.",
          "x": "the X coordinate of the curve point for the public key.",
          "y": "the Y coordinate of the curve point for the public key."
        }
      },
      "setContent(bytes32,bytes32)": {
        "params": {
          "hash": "The content hash to set",
          "node": "The node to update."
        }
      },
      "setMultihash(bytes32,bytes)": {
        "params": {
          "hash": "The multihash to set",
          "node": "The node to update."
        }
      },
      "setName(bytes32,string)": {
        "params": {
          "name": "The name to set.",
          "node": "The node to update."
        }
      },
      "setPubkey(bytes32,bytes32,bytes32)": {
        "params": {
          "node": "The ENS node to query",
          "x": "the X coordinate of the curve point for the public key.",
          "y": "the Y coordinate of the curve point for the public key."
        }
      },
      "setText(bytes32,string,string)": {
        "params": {
          "key": "The key to set.",
          "node": "The node to update.",
          "value": "The text data value to set."
        }
      },
      "supportsInterface(bytes4)": {
        "params": {
          "interfaceID": "The ID of the interface to check for."
        },
        "return": "True if the contract implements the requested interface."
      },
      "text(bytes32,string)": {
        "params": {
          "key": "The text data key to query.",
          "node": "The ENS node to query."
        },
        "return": "The associated text data."
      }
    }
  },
  "userdoc": {
    "methods": {
      "addr(bytes32)": {
        "notice": "Returns the address associated with an ENS node."
      },
      "constructor": "Constructor.",
      "content(bytes32)": {
        "notice": "Returns the content hash associated with an ENS node. Note that this resource type is not standardized, and will likely change in future to a resource type based on multihash."
      },
      "multihash(bytes32)": {
        "notice": "Returns the multihash associated with an ENS node."
      },
      "name(bytes32)": {
        "notice": "Returns the name associated with an ENS node, for reverse records. Defined in EIP181."
      },
      "pubkey(bytes32)": {
        "notice": "Returns the SECP256k1 public key associated with an ENS node. Defined in EIP 619."
      },
      "setABI(bytes32,uint256,bytes)": {
        "notice": "Sets the ABI associated with an ENS node. Nodes may have one ABI of each content type. To remove an ABI, set it to the empty string."
      },
      "setAddr(bytes32,address)": {
        "notice": "Sets the address associated with an ENS node. May only be called by the owner of that node in the ENS registry."
      },
      "setAll(bytes32,address,bytes32,bytes,bytes32,bytes32,string)": {
        "notice": "Sets all required params in one attempt May only be called by the owner of that node in the ENS registry."
      },
      "setContent(bytes32,bytes32)": {
        "notice": "Sets the content hash associated with an ENS node. May only be called by the owner of that node in the ENS registry. Note that this resource type is not standardized, and will likely change in future to a resource type based on multihash."
      },
      "setMultihash(bytes32,bytes)": {
        "notice": "Sets the multihash associated with an ENS node. May only be called by the owner of that node in the ENS registry."
      },
      "setName(bytes32,string)": {
        "notice": "Sets the name associated with an ENS node, for reverse records. May only be called by the owner of that node in the ENS registry."
      },
      "setPubkey(bytes32,bytes32,bytes32)": {
        "notice": "Sets the SECP256k1 public key associated with an ENS node."
      },
      "setText(bytes32,string,string)": {
        "notice": "Sets the text data associated with an ENS node and key. May only be called by the owner of that node in the ENS registry."
      },
      "supportsInterface(bytes4)": {
        "notice": "Returns true if the resolver implements the interface specified by the provided hash."
      },
      "text(bytes32,string)": {
        "notice": "Returns the text data associated with an ENS node and key."
      }
    },
    "notice": "A simple resolver anyone can use; only allows the owner of a node to set its address."
  }
}