{
  "contractName": "ConsentManager",
  "abi": [
    {
      "anonymous": false,
      "inputs": [
        {
          "indexed": false,
          "name": "consent",
          "type": "address"
        },
        {
          "indexed": false,
          "name": "dataUser",
          "type": "address"
        },
        {
          "indexed": false,
          "name": "dataSubject",
          "type": "address"
        }
      ],
      "name": "SignaturesRequired",
      "type": "event"
    },
    {
      "anonymous": false,
      "inputs": [
        {
          "indexed": false,
          "name": "consent",
          "type": "address"
        },
        {
          "indexed": false,
          "name": "withConsent",
          "type": "address"
        }
      ],
      "name": "ConsentUpdated",
      "type": "event"
    },
    {
      "anonymous": false,
      "inputs": [
        {
          "indexed": false,
          "name": "sender",
          "type": "address"
        },
        {
          "indexed": false,
          "name": "dataSubject",
          "type": "address"
        },
        {
          "indexed": false,
          "name": "dataUser",
          "type": "address"
        }
      ],
      "name": "ConsentUpdate",
      "type": "event"
    },
    {
      "constant": false,
      "inputs": [
        {
          "name": "dataUser",
          "type": "address"
        },
        {
          "name": "dataSubject",
          "type": "address"
        },
        {
          "name": "swarmLocation",
          "type": "bytes32"
        }
      ],
      "name": "createConsent",
      "outputs": [
        {
          "name": "",
          "type": "address"
        }
      ],
      "payable": false,
      "stateMutability": "nonpayable",
      "type": "function"
    },
    {
      "constant": false,
      "inputs": [
        {
          "name": "consent",
          "type": "address"
        },
        {
          "name": "swarmLocation",
          "type": "bytes32"
        }
      ],
      "name": "updateConsent",
      "outputs": [
        {
          "name": "",
          "type": "address"
        }
      ],
      "payable": true,
      "stateMutability": "payable",
      "type": "function"
    },
    {
      "constant": true,
      "inputs": [],
      "name": "getUserConsents",
      "outputs": [
        {
          "name": "",
          "type": "address[]"
        }
      ],
      "payable": false,
      "stateMutability": "view",
      "type": "function"
    },
    {
      "constant": true,
      "inputs": [],
      "name": "getSubjectConsents",
      "outputs": [
        {
          "name": "",
          "type": "address[]"
        }
      ],
      "payable": false,
      "stateMutability": "view",
      "type": "function"
    },
    {
      "constant": true,
      "inputs": [
        {
          "name": "swarmHash",
          "type": "bytes32"
        }
      ],
      "name": "getConsentsFor",
      "outputs": [
        {
          "name": "",
          "type": "address[]"
        }
      ],
      "payable": false,
      "stateMutability": "view",
      "type": "function"
    }
  ],
  "bytecode": "0x608060405234801561001057600080fd5b5061139b806100206000396000f3fe6080604052600436106100535763ffffffff60e060020a60003504166324125957811461005857806341764cc4146100b757806384d697451461011c578063b5ed7c8c14610131578063e5f414981461015d575b600080fd5b34801561006457600080fd5b5061009b6004803603606081101561007b57600080fd5b50600160a060020a03813581169160208101359091169060400135610187565b60408051600160a060020a039092168252519081900360200190f35b3480156100c357600080fd5b506100cc610281565b60408051602080825283518183015283519192839290830191858101910280838360005b838110156101085781810151838201526020016100f0565b505050509050019250505060405180910390f35b34801561012857600080fd5b506100cc6102ec565b61009b6004803603604081101561014757600080fd5b50600160a060020a038135169060200135610353565b34801561016957600080fd5b506100cc6004803603602081101561018057600080fd5b5035610919565b60008030858585610196610b13565b600160a060020a039485168152928416602084015292166040808301919091526060820192909252905190819003608001906000f0801580156101dd573d6000803e3d6000fd5b5090506101e981610985565b5060008381526002602090815260408083208054600181018255908452928290209092018054600160a060020a0380861673ffffffffffffffffffffffffffffffffffffffff19909216821790925583519081528882169281019290925286168183015290517f01a26cecf0f7b731da0c2f895e2bcea5bc810cc2f37cce9cfb9a28eed4dd98ac9181900360600190a1949350505050565b336000908152600160209081526040918290208054835181840281018401909452808452606093928301828280156102e257602002820191906000526020600020905b8154600160a060020a031681526001909101906020018083116102c4575b5050505050905090565b33600090815260208181526040918290208054835181840281018401909452808452606093928301828280156102e257602002820191906000526020600020908154600160a060020a031681526001909101906020018083116102c4575050505050905090565b60007f52addfe8f855121a46cf8da578b672ae307909d6ccf696a79ff47ab1a112dae03384600160a060020a031663a35a45936040518163ffffffff1660e060020a02815260040160206040518083038186803b1580156103b357600080fd5b505afa1580156103c7573d6000803e3d6000fd5b505050506040513d60208110156103dd57600080fd5b5051604080517fff30c1850000000000000000000000000000000000000000000000000000000081529051600160a060020a0388169163ff30c185916004808301926020929190829003018186803b15801561043857600080fd5b505afa15801561044c573d6000803e3d6000fd5b505050506040513d602081101561046257600080fd5b505160408051600160a060020a039485168152928416602084015292168183015290519081900360600190a182600160a060020a031663a35a45936040518163ffffffff1660e060020a02815260040160206040518083038186803b1580156104ca57600080fd5b505afa1580156104de573d6000803e3d6000fd5b505050506040513d60208110156104f457600080fd5b5051600160a060020a031633148061057b575082600160a060020a031663ff30c1856040518163ffffffff1660e060020a02815260040160206040518083038186803b15801561054357600080fd5b505afa158015610557573d6000803e3d6000fd5b505050506040513d602081101561056d57600080fd5b5051600160a060020a031633145b151561058657600080fd5b60003084600160a060020a031663ff30c1856040518163ffffffff1660e060020a02815260040160206040518083038186803b1580156105c557600080fd5b505afa1580156105d9573d6000803e3d6000fd5b505050506040513d60208110156105ef57600080fd5b5051604080517fa35a45930000000000000000000000000000000000000000000000000000000081529051600160a060020a0388169163a35a4593916004808301926020929190829003018186803b15801561064a57600080fd5b505afa15801561065e573d6000803e3d6000fd5b505050506040513d602081101561067457600080fd5b50518561067f610b13565b600160a060020a039485168152928416602084015292166040808301919091526060820192909252905190819003608001906000f0801580156106c6573d6000803e3d6000fd5b50905083600160a060020a03166388d1313e826040518263ffffffff1660e060020a0281526004018082600160a060020a0316600160a060020a03168152602001915050602060405180830381600087803b15801561072457600080fd5b505af1158015610738573d6000803e3d6000fd5b505050506040513d602081101561074e57600080fd5b50506000838152600260209081526040808320805460018101825590845292829020909201805473ffffffffffffffffffffffffffffffffffffffff1916600160a060020a0388811691821790925583519081529084169181019190915281517fe7d7823be9d101e42d699d07774836d011b7d19187174894fc6e7004bf228517929181900390910190a17f01a26cecf0f7b731da0c2f895e2bcea5bc810cc2f37cce9cfb9a28eed4dd98ac8185600160a060020a031663ff30c1856040518163ffffffff1660e060020a02815260040160206040518083038186803b15801561083757600080fd5b505afa15801561084b573d6000803e3d6000fd5b505050506040513d602081101561086157600080fd5b5051604080517fa35a45930000000000000000000000000000000000000000000000000000000081529051600160a060020a0389169163a35a4593916004808301926020929190829003018186803b1580156108bc57600080fd5b505afa1580156108d0573d6000803e3d6000fd5b505050506040513d60208110156108e657600080fd5b505160408051600160a060020a039485168152928416602084015292168183015290519081900360600190a19392505050565b60008181526002602090815260409182902080548351818402810184019094528084526060939283018282801561097957602002820191906000526020600020905b8154600160a060020a0316815260019091019060200180831161095b575b50505050509050919050565b600080600083600160a060020a031663ff30c1856040518163ffffffff1660e060020a02815260040160206040518083038186803b1580156109c657600080fd5b505afa1580156109da573d6000803e3d6000fd5b505050506040513d60208110156109f057600080fd5b5051600160a060020a0390811682526020808301939093526040918201600090812080546001808201835591835285832001805473ffffffffffffffffffffffffffffffffffffffff1916938816938417905583517fa35a459300000000000000000000000000000000000000000000000000000000815293519094919363a35a4593926004808301939192829003018186803b158015610a9057600080fd5b505afa158015610aa4573d6000803e3d6000fd5b505050506040513d6020811015610aba57600080fd5b5051600160a060020a039081168252602080830193909352604090910160009081208054600181018255908252929020909101805473ffffffffffffffffffffffffffffffffffffffff19169184169190911790555090565b60405161084c80610b248339019056fe608060405234801561001057600080fd5b5060405160808061084c8339810180604052608081101561003057600080fd5b508051602082015160408301516060909301516000805461010060a860020a031916610100600160a060020a038616021780825593949293819060ff1916600182021790555060015560028054600160a060020a0319908116600160a060020a039485161790915560038054909116919092161760a060020a61ffff02191690555061078b806100c16000396000f3fe6080604052600436106100e45763ffffffff7c0100000000000000000000000000000000000000000000000000000000600035041662f7063881146100e65780630f57877b1461011f5780631028b4c71461015057806319deeb2614610165578063200d2ed21461018c5780636625fe0f146101a157806378cd3c73146101e057806388d1313e146102095780639b4afffa1461023c578063a35a459314610251578063bb5d40eb14610266578063dba7c1b21461027b578063e66a6b22146102ba578063feac51f5146102cf578063ff30c185146102e4578063ff4c4d54146102f9575b005b3480156100f257600080fd5b506100fb61030e565b6040518082600481111561010b57fe5b60ff16815260200191505060405180910390f35b34801561012b57600080fd5b50610134610352565b60408051600160a060020a039092168252519081900360200190f35b34801561015c57600080fd5b50610134610361565b34801561017157600080fd5b5061017a610375565b60408051918252519081900360200190f35b34801561019857600080fd5b506100fb61037b565b3480156101ad57600080fd5b50610134600480360360808110156101c457600080fd5b5080359060ff6020820135169060408101359060600135610384565b3480156101ec57600080fd5b506101f5610417565b604080519115158252519081900360200190f35b34801561021557600080fd5b506100fb6004803603602081101561022c57600080fd5b5035600160a060020a0316610438565b34801561024857600080fd5b506101f56104ea565b34801561025d57600080fd5b5061013461050c565b34801561027257600080fd5b506101f561051b565b34801561028757600080fd5b506101346004803603608081101561029e57600080fd5b5080359060ff6020820135169060408101359060600135610536565b3480156102c657600080fd5b506101f56105c3565b3480156102db57600080fd5b506100e4610610565b3480156102f057600080fd5b50610134610664565b34801561030557600080fd5b506100fb610673565b60008060005460ff16600481111561032257fe5b1461032c57600080fd5b6103346105c3565b15610347576000805460ff191660011790555b5060005460ff165b90565b600454600160a060020a031681565b6000546101009004600160a060020a031681565b60015481565b60005460ff1681565b60035460009074010000000000000000000000000000000000000000900460ff16156103af57600080fd5b6002546103c890600160a060020a0316868686866106d9565b60038054911515740100000000000000000000000000000000000000000274ff00000000000000000000000000000000000000001990921691909117905561040e61030e565b50949350505050565b60035474010000000000000000000000000000000000000000900460ff1690565b60035460408051338152600160a060020a03928316602082015291831682820152326060830152516000917ff19694af28fef357e4c01339a9a48200f42e1f70a73d16a8519ecc704d5ad405919081900360800190a16000546101009004600160a060020a031633146104aa57600080fd5b6000805460ff1916600217905560048054600160a060020a039390931673ffffffffffffffffffffffffffffffffffffffff199093169290921790915590565b6003547501000000000000000000000000000000000000000000900460ff1690565b600354600160a060020a031681565b6000600160005460ff16600481111561053057fe5b14905090565b6003546000907501000000000000000000000000000000000000000000900460ff161561056257600080fd5b60035461057b90600160a060020a0316868686866106d9565b6003805491151575010000000000000000000000000000000000000000000275ff0000000000000000000000000000000000000000001990921691909117905561040e61030e565b60035460009074010000000000000000000000000000000000000000900460ff16801561060b57506003547501000000000000000000000000000000000000000000900460ff165b905090565b600354600160a060020a0316331461062757600080fd5b600354604051600160a060020a0390911690303180156108fc02916000818181858888f19350505050158015610661573d6000803e3d6000fd5b50565b600254600160a060020a031681565b600354600090600160a060020a03163314806106995750600254600160a060020a031633145b15156106a457600080fd5b600354600160a060020a03163314156106c9576000805460ff1916600317905561034f565b6000805460ff1916600417905590565b60008060018686868660405160008152602001604052604051808581526020018460ff1660ff1681526020018381526020018281526020019450505050506020604051602081039080840390855afa158015610739573d6000803e3d6000fd5b5050604051601f190151600160a060020a0390811690891614925050509594505050505056fea165627a7a72305820ceac97aab0ce729b5fcbe1e99787ada110d5d4ae495cdc780c4c406d9dc8a1360029a165627a7a7230582083295bb939849402603abd4b28509960a840afbb1ca6ffdfc192dcf09d7312220029",
  "source": "// TEX 05.06.2019\r\npragma solidity ^0.5.0;\r\n//pragma experimental ABIEncoderV2;\r\n\r\ncontract ConsentManager {\r\n    event SignaturesRequired(Consent consent, address dataUser, address dataSubject);\r\n    event ConsentUpdated(Consent consent, Consent withConsent);\r\n    event ConsentUpdate(address sender, address payable dataSubject, address payable dataUser); \r\n    \r\n    /////////////////////////////////////////////////////////////////\r\n    // these could be omited \r\n    /*address[] dataSubjects;\r\n    address[] dataUsers;\r\n    mapping(address => uint256) internal existingDataSubject;\r\n    mapping(address => uint256) internal existingDataUsers; */\r\n    /////////////////////////////////////////////////////////////////\r\n    \r\n    mapping(address => Consent[]) internal userConsents; \r\n    mapping(address => Consent[]) internal subjectConsents;\r\n    mapping(bytes32 => Consent[]) internal consentsOnSwarm; \r\n    \r\n    \r\n    function createConsent(address payable dataUser, address payable dataSubject, bytes32 swarmLocation) public returns (Consent) {\r\n        Consent consent = new Consent(address(this), dataUser, dataSubject, swarmLocation);\r\n        \r\n        addConsent(consent);\r\n        \r\n        consentsOnSwarm[swarmLocation].push(consent);\r\n        \r\n        emit SignaturesRequired(consent, dataUser, dataSubject);\r\n        return consent;\r\n    }\r\n    \r\n    function updateConsent(Consent consent, bytes32 swarmLocation) payable public returns (Consent) {\r\n        emit ConsentUpdate(msg.sender, consent.dataSubject(), consent.dataUser());\r\n        require(msg.sender==address(consent.dataSubject()) || msg.sender==address(consent.dataUser()));\r\n\r\n        Consent newConsent = new Consent(address(this), consent.dataUser(), consent.dataSubject(), swarmLocation);\r\n        \r\n        consent.updateConsent(newConsent);\r\n        //address(consent).call(abi.encodeWithSignature(\"updateConsent(Consent)\", address(consent)));\r\n        consentsOnSwarm[swarmLocation].push(consent);\r\n        \r\n        emit ConsentUpdated(consent, newConsent);\r\n        emit SignaturesRequired(newConsent, consent.dataUser(), consent.dataSubject());\r\n        return newConsent;\r\n    }\r\n    \r\n    // others can add KeyValueTrees (but need to set access rights by themselfs)\r\n    function addConsent(Consent consent) private returns (Consent) {\r\n\r\n        userConsents[consent.dataUser()].push(consent);\r\n        subjectConsents[consent.dataSubject()].push(consent);\r\n        \r\n        return consent;\r\n    }\r\n    \r\n    function getUserConsents() public view returns (Consent[] memory) {\r\n        return userConsents[msg.sender];\r\n    }\r\n    function getSubjectConsents() public view returns (Consent[] memory) {\r\n        return subjectConsents[msg.sender];\r\n    }\r\n    function getConsentsFor(bytes32 swarmHash) public view returns (Consent[] memory) {\r\n        return consentsOnSwarm[swarmHash];\r\n    }\r\n}\r\n\r\ncontract Consent {\r\n\r\n    //event LogA(address A, address B);\r\n    event UpdatingConsent(address sender, address payable dataSubject, Consent consent, address origin); \r\n\r\n    function () external payable {    }\r\n    function removeFunds()  public { \r\n        require(msg.sender == dataSubject);\r\n        dataSubject.transfer(address(this).balance); \r\n    }\r\n\r\n    constructor(address consentManager, address payable dataUserAddress, address payable dataSubjectAddress, bytes32 swarmLocation) public {\r\n        consentMan = consentManager;\r\n        status = ConsentStatus.AWAITINGSIGNATURE; \r\n        swarmHash = swarmLocation;\r\n        \r\n        dataUser = dataUserAddress;\r\n        dataSubject = dataSubjectAddress;\r\n        userSigned = false;\r\n        subjectSigned = false;\r\n        //validUntil = block.number + (365 * 24 * 60 * 60); // one year until valid\r\n    }\r\n    \r\n    enum ConsentStatus {AWAITINGSIGNATURE,ACTIVE,EXPIRED,REVOKED_SUBJECT, REVOKED_USER}\r\n    ConsentStatus public status;\r\n    address public consentMan;\r\n    \r\n    bytes32 public swarmHash;\r\n    address payable public dataUser;\r\n    address payable public dataSubject;\r\n    //uint256 public validUntil;\r\n    \r\n    bool private userSigned;\r\n    bool private subjectSigned;\r\n    \r\n    Consent public updatedConsent;\r\n\r\n    function revokeConsent() public returns (ConsentStatus) {\r\n        require(msg.sender==dataSubject || msg.sender==dataUser);\r\n        if(msg.sender==dataSubject)\r\n           status = ConsentStatus.REVOKED_SUBJECT;\r\n        else\r\n           status = ConsentStatus.REVOKED_USER;  \r\n    }\r\n    \r\n    function updateConsent(Consent consent) public returns (ConsentStatus) {\r\n        emit UpdatingConsent(msg.sender, dataSubject, consent, tx.origin);\r\n        require(msg.sender==consentMan);\r\n        //require(msg.sender==dataSubject);\r\n        status = ConsentStatus.EXPIRED;  \r\n        updatedConsent = consent;\r\n    }\r\n    \r\n    function isValid() public view returns (bool) {\r\n        /*if(block.number>validUntil)\r\n        {\r\n           status = ConsentStatus.EXPIRED;  \r\n           return false;\r\n        }*/\r\n           \r\n        return status==ConsentStatus.ACTIVE;\r\n    }\r\n\r\n    function isSigned() public view returns (bool) { return userSigned && subjectSigned; }\r\n    function isUserSigned() public view returns (bool) { return userSigned;  }\r\n    function isSubjectSigned() public view returns (bool) { return subjectSigned;  }\r\n    \r\n    // transition to ACTIVE only when both parties signed this consent\r\n    function transitionToActive() public returns (ConsentStatus) { \r\n        require(status == ConsentStatus.AWAITINGSIGNATURE);\r\n        if(isSigned()) \r\n           status = ConsentStatus.ACTIVE;\r\n           \r\n        return status;\r\n    }\r\n\r\n    function signUser(bytes32 h, uint8 v, bytes32 r, bytes32 s) public returns (address) {\r\n        require(userSigned==false);\r\n        userSigned = signForRaw(dataUser, h,v,r,s);\r\n        transitionToActive();\r\n    }\r\n    function signSubject(bytes32 h, uint8 v, bytes32 r, bytes32 s) public returns (address) {\r\n        require(subjectSigned==false);\r\n        subjectSigned = signForRaw(dataSubject, h,v,r,s);\r\n        transitionToActive();\r\n    }\r\n    \r\n    // function signFor(address payable forParty, bytes32 h, uint8 v, bytes32 r, bytes32 s) private pure returns (bool) {\r\n    //     bytes memory prefix = \"\\x19Ethereum Signed Message:\\n32\";\r\n\r\n    //     bytes32 dataHash = keccak256(abi.encodePacked(prefix, h));\r\n    //     address addr = ecrecover(dataHash, v, r, s);\r\n        \r\n    //     return (addr == forParty);\r\n    // }\r\n\r\n    function signForRaw(address payable forParty, bytes32 h, uint8 v, bytes32 r, bytes32 s) private pure returns (bool) {\r\n        address addr = ecrecover(h, v, r, s);\r\n        return (addr == forParty);\r\n    }\r\n}",
  "sourcePath": "C:/Users/tex/source/repos/FairDataSociety/multibox/contracts/ConsentManager.sol",
  "compiler": {
    "name": "solc",
    "version": "0.5.0+commit.1d4f565a.Emscripten.clang"
  },
  "schemaVersion": "3.0.6",
  "updatedAt": "2019-07-08T12:20:46.942Z",
  "devdoc": {
    "methods": {}
  },
  "userdoc": {
    "methods": {}
  }
}