{
  "contractName": "DataRequestEscrow",
  "abi": [
    {
      "inputs": [
        {
          "name": "whoIsRequesting",
          "type": "address"
        },
        {
          "name": "mb",
          "type": "address"
        },
        {
          "name": "keyValueTree",
          "type": "address"
        },
        {
          "name": "targetnodeId",
          "type": "bytes32"
        }
      ],
      "payable": false,
      "stateMutability": "nonpayable",
      "type": "constructor"
    },
    {
      "constant": false,
      "inputs": [],
      "name": "deposit",
      "outputs": [],
      "payable": true,
      "stateMutability": "payable",
      "type": "function"
    },
    {
      "constant": true,
      "inputs": [],
      "name": "whoIsRequester",
      "outputs": [
        {
          "name": "",
          "type": "address"
        }
      ],
      "payable": false,
      "stateMutability": "view",
      "type": "function"
    },
    {
      "constant": false,
      "inputs": [],
      "name": "approve",
      "outputs": [
        {
          "name": "",
          "type": "bool"
        }
      ],
      "payable": false,
      "stateMutability": "nonpayable",
      "type": "function"
    },
    {
      "constant": false,
      "inputs": [
        {
          "name": "proofDataLocation",
          "type": "bytes32"
        }
      ],
      "name": "setProofOwnerShared",
      "outputs": [
        {
          "name": "",
          "type": "bool"
        }
      ],
      "payable": false,
      "stateMutability": "nonpayable",
      "type": "function"
    },
    {
      "constant": false,
      "inputs": [
        {
          "name": "h",
          "type": "bytes32"
        },
        {
          "name": "v",
          "type": "uint8"
        },
        {
          "name": "r",
          "type": "bytes32"
        },
        {
          "name": "s",
          "type": "bytes32"
        }
      ],
      "name": "verifyOwnerShared",
      "outputs": [
        {
          "name": "",
          "type": "address"
        }
      ],
      "payable": false,
      "stateMutability": "nonpayable",
      "type": "function"
    },
    {
      "constant": false,
      "inputs": [],
      "name": "finalize",
      "outputs": [],
      "payable": false,
      "stateMutability": "nonpayable",
      "type": "function"
    },
    {
      "constant": false,
      "inputs": [],
      "name": "denyApproval",
      "outputs": [],
      "payable": false,
      "stateMutability": "nonpayable",
      "type": "function"
    },
    {
      "constant": false,
      "inputs": [],
      "name": "abortRequest",
      "outputs": [],
      "payable": false,
      "stateMutability": "nonpayable",
      "type": "function"
    }
  ],
  "bytecode": "0x608060405234801561001057600080fd5b5060405160808061089d8339810180604052608081101561003057600080fd5b5080516020820151604083015160609093015160048054600160a060020a0319908116600160a060020a039586161790915560008054821693851693909317835560018054909116939094169290921790925560025561080790819061009690396000f3fe6080604052600436106100745763ffffffff60e060020a6000350416630205217e8114610079578063043b0496146100aa57806312120511146100c157806312424e3f1461010057806345f9a3b5146101295780634bb278f314610153578063d0e30db014610168578063e609559414610170575b600080fd5b34801561008557600080fd5b5061008e610185565b60408051600160a060020a039092168252519081900360200190f35b3480156100b657600080fd5b506100bf610228565b005b3480156100cd57600080fd5b5061008e600480360360808110156100e457600080fd5b5080359060ff602082013516906040810135906060013561024d565b34801561010c57600080fd5b50610115610410565b604080519115158252519081900360200190f35b34801561013557600080fd5b506101156004803603602081101561014c57600080fd5b5035610573565b34801561015f57600080fd5b506100bf61060e565b6100bf610725565b34801561017c57600080fd5b506100bf61074b565b60008060009054906101000a9004600160a060020a0316600160a060020a0316638da5cb5b6040518163ffffffff1660e060020a02815260040160206040518083038186803b1580156101d757600080fd5b505afa1580156101eb573d6000803e3d6000fd5b505050506040513d602081101561020157600080fd5b5051600160a060020a0316331461021757600080fd5b50600454600160a060020a03165b90565b600454600160a060020a0316331461023f57600080fd5b600454600160a060020a0316ff5b604080518082018252601c8082527f19457468657265756d205369676e6564204d6573736167653a0a33320000000060208084019182529351600094859385938b939092019182918083835b602083106102b85780518252601f199092019160209182019101610299565b51815160209384036101000a600019018019909216911617905292019384525060408051808503815284830180835281519184019190912060009182905282860180845281905260ff8d166060870152608086018c905260a086018b90529151919650945060019360c08082019450601f19830192918290030190855afa158015610347573d6000803e3d6000fd5b505060408051601f198101516001547f8da5cb5b0000000000000000000000000000000000000000000000000000000083529251909450600160a060020a039092169250638da5cb5b916004808301926020929190829003018186803b1580156103b057600080fd5b505afa1580156103c4573d6000803e3d6000fd5b505050506040513d60208110156103da57600080fd5b5051600160a060020a03828116911614156103fd576103f7610410565b50610405565b610405610228565b505050949350505050565b600154600254604080517fa24fa791000000000000000000000000000000000000000000000000000000008152600481019290925251600092600160a060020a03169163a24fa791916024808301926020929190829003018186803b15801561047857600080fd5b505afa15801561048c573d6000803e3d6000fd5b505050506040513d60208110156104a257600080fd5b50511561056d576001805460025460048054604080517f90d1040e00000000000000000000000000000000000000000000000000000000815292830193909352600160a060020a03908116602483015260448201949094529051600093909216916390d1040e9160648082019260209290919082900301818787803b15801561052a57600080fd5b505af115801561053e573d6000803e3d6000fd5b505050506040513d602081101561055457600080fd5b50519050600181141561056b576001915050610225565b505b50600090565b60008060009054906101000a9004600160a060020a0316600160a060020a0316638da5cb5b6040518163ffffffff1660e060020a02815260040160206040518083038186803b1580156105c557600080fd5b505afa1580156105d9573d6000803e3d6000fd5b505050506040513d60208110156105ef57600080fd5b5051600160a060020a0316331461060557600080fd5b60039190915590565b6000809054906101000a9004600160a060020a0316600160a060020a0316638da5cb5b6040518163ffffffff1660e060020a02815260040160206040518083038186803b15801561065e57600080fd5b505afa158015610672573d6000803e3d6000fd5b505050506040513d602081101561068857600080fd5b5051600160a060020a0316331461069e57600080fd5b6000809054906101000a9004600160a060020a0316600160a060020a0316638da5cb5b6040518163ffffffff1660e060020a02815260040160206040518083038186803b1580156106ee57600080fd5b505afa158015610702573d6000803e3d6000fd5b505050506040513d602081101561071857600080fd5b5051600160a060020a0316ff5b600454600160a060020a0316331461073c57600080fd5b6000341161074957600080fd5b565b6000809054906101000a9004600160a060020a0316600160a060020a0316638da5cb5b6040518163ffffffff1660e060020a02815260040160206040518083038186803b15801561079b57600080fd5b505afa1580156107af573d6000803e3d6000fd5b505050506040513d60208110156107c557600080fd5b5051600160a060020a0316331461023f57600080fdfea165627a7a72305820ec6295ed2c136a178b475efaa671dfee97d931ea9cfb7f997b2a099ebfe51bd50029",
  "source": "/* This Source Code Form is subject to the terms of the Mozilla Public\n * License, v. 2.0. If a copy of the MPL was not distributed with this\n * file, You can obtain one at http://mozilla.org/MPL/2.0/.\n *\n * This code has not been reviewed.\n * Do not use or deploy this code before reviewing it personally first.\n */\n\n/*\n  so how we tackle access rights? \n  upon creation root could be pupulated with common folders, but this was removed to reduce gas \n*/\n/*\n      privatenodeId      = addFolder(rootNodeId, 0x69ebce02fbffacce50622356b97cc93a78f17feb5bf8e8ccacbdb7032e3162dc); // none can r/w\n      publicnodeId       = addFolder(rootNodeId, 0x7e00625d1d39ffe13a119d9085848880ad5ccd078e38677f3a705653326d44ed); \n      unrestrainednodeId = addFolder(rootNodeId, 0xd0e98c61c165756dc6a3294835afbb596b332b2a27061c997163e623939c6cc0); \n      \n      setNodeAccess(publicnodeId, address(0x0), 1); // everyone can read, but not write\n      setNodeAccess(sharedNodeId, address(0x0), 3); // unknown can add, but not read \n      setNodeAccess(unrestrainednodeId, address(0x0), 2); // all can read all can write\n*/\n\n// DONE: prepare events, to enable them replace all //! with \"\" \n// TODO: method to move key/value from nodeId to new nodeId \n// TODO: add nodeId from other kvt, if its possible to do cross-contract node sharing ...  else write additional contract to hold shared data \n//\n\n pragma solidity ^0.5.0;\n\ncontract KeyValueTree {\n    address payable public owner;\n    modifier onlyOwner() {\n        require(msg.sender == owner);\n        _;\n    }\n    function changeOwner(address payable _newOwner) public onlyOwner { owner = _newOwner; }\n    \n    // should these be public, or private? and accessed through methods that also check accessRights ? \n    bytes32 public rootNodeId; // root of tree\n    bytes32 public sharedNodeId; // incoming node id\n    \n    function getRootId() public view returns (bytes32) { return rootNodeId; }\n    function getSharedId() public view returns (bytes32) { return sharedNodeId; }    \n\n    bytes32[] nodes; // all folder roots\n    mapping(bytes32 => uint256) nodesIndex; // map of folder to index (starts with 1, not 0!!)\n    \n    //mapping(bytes32 => bytes32) internal folderNodes; // map of folder to nodeId\n    //mapping(bytes32 => bytes32) internal nodeIdToFolder; // nodeIds to protocol \n    \n    mapping(bytes32 => Node) internal Nodes; // nodeId to node\n    mapping(bytes32 => mapping(bytes32 => bytes32[])) internal keyNodeIdValues; // feeds by sender by folder\n    \n    // AccessRights\n    // contains 0x0 = 1, everyone can read/write\n    // contains 0x0 = 1, everyone can read/write\n    // contains 0x0 = 0, none onlyOwner\n    // contains address = -1, address is forbiden to \n    // contains address =  0, address is forbiden to \n    // contains address =  1, address can read\n    // contains address =  2, address can read/write\n    // contains address =  3, address can write but can not read\n    // contains address =  4, address can overwrite existing address feed \n    struct Node {\n        bool      isNode;\n        uint      index;\n        bytes32   parent;\n        \n        // consider putting protocol info in a node \n        mapping(address => int) canAccess;\n        mapping(bytes32 => bytes32) valuesMap;\n        bytes32[] keys;\n        bytes32[] values;\n        \n        bytes32[] children;  // child nodes\n    }\n    \n\n   //!event NodeAdded(bytes32);\n   //!event NodeRemovedChild(uint256);\n   //!event NodeAddChild(bytes32);\n   //!event NodeAccessChange(bytes32,address,int);\n   //!event NodeDelete(bytes32 nodeId, bytes32 folder);\n   //!event AddFolder(bytes32 nodeId, bytes32 folder);\n   //!event KeyValueSet(bytes32 nodeId, bytes32 key, bytes32 value);\n   //!event KeyValueSetFolder(bytes32 nodeId, bytes32 folder);\n   //!event OverwriteKeyValue(bytes32 nodeId, uint256 index, bytes32 key, bytes32 value);\n   //!event RemoveKeyValue(bytes32 nodeId, uint256 index, bytes32 key, bytes32 value);\n    \n    function isNode(bytes32 nodeId) public view returns(bool)  {\n        return Nodes[nodeId].isNode;\n    }\n    function getChildCount(bytes32 nodeId) public view returns(uint childCount) {\n        return Nodes[nodeId].children.length;\n    }\n    function getChildAt(bytes32 nodeId, uint index) public view returns(bytes32 childId) {\n        return Nodes[nodeId].children[index];\n    }\n    function getChildren(bytes32 nodeId) public view returns(bytes32[] memory childrenodeId) {\n        return Nodes[nodeId].children;\n    }\n    function removeChildAt(bytes32 nodeId, uint256 index) public returns (bool) {\n         // removes children node from nodeId, not best way as it does reordering \n         if(!canWrite(nodeId, msg.sender)) return false;  // can write to node that is supposed to be deleted?\n\n         Node storage node = Nodes[nodeId];\n         \n         if(!canWrite(node.children[index], msg.sender)) return false; // can write to node that is supposed to be deleted?\n         \n         uint last = node.children.length-1; // last child in the list\n         uint idx = Nodes[node.children[last]].index;\n         \n         node.children[index] = node.children[last];\n         delete node.children[last];\n         node.children.length--;\n         \n         Nodes[node.children[last]].index = idx; // swap index\n         \n         //!emit NodeRemovedChild(index);\n         return true;\n    }    \n    function addNode(bytes32 nodeId, bytes32 subNodeId) internal returns(bytes32 newId) {\n        if(!isNode(nodeId) && nodeId > 0) revert(); // zero is a new root node\n        \n        if(isNode(subNodeId)) revert();\n        //newId = keccak256(abi.encodePacked(nodeId, msg.sender, block.number, folder));\n        newId = subNodeId; \n\n        Node memory node;\n        node.parent = nodeId;\n        node.isNode = true;\n        \n        if(nodeId>0) {\n            node.index = addChild(nodeId,newId);\n        }\n        \n        Nodes[newId] = node;\n        //!emit NodeAdded(newId);\n        return newId;\n    }\n    function addChild(bytes32 nodeId, bytes32 childId) private returns(uint index) {\n        //!emit NodeAddChild(childId);\n        return Nodes[nodeId].children.push(childId) - 1;\n    }\n    \n    // constructor\n    constructor(address payable _owner) public {\n      owner = _owner;         \n      rootNodeId         = addNode(0, 0xc7f5bbf5fe95923f0691c94f666ac3dfed12456cd33bd018e7620c3d93edd5a6); // the root of all, onlyOwner r/w  c7f5bbf5fe95923f0691c94f666ac3dfed12456cd33bd018e7620c3d93edd5a6\n      sharedNodeId       = addChildNode(rootNodeId, 0x23e642b7242469a5e3184a6566020c815689149967703a98c0affc14b9ca9b28);\n      // setNodeAccess(sharedNodeId, address(0x0), 3); // unknown can add, but not read \n    }\n    \n    ///////////////////////////////////////////////////////////////////////////////////////////       \n    function setNodeAccess(bytes32 nodeId, address addr, int rights) /*onlyOwner*/ public returns (int) {\n       //if(msg.sender!=owner) return -1;\n       if(addr==owner) return 2; // owner always has r/w access, this is needed so one can not bloat mapping with owner address\n       if(!canWrite( nodeId, msg.sender)) return -1;\n\n       //!emit NodeAccessChange(nodeId,addr,rights);\n       Nodes[nodeId].canAccess[addr] = rights;\n       return rights;\n    }\n    function canRead(bytes32 nodeId, address addr) public view returns (bool) {\n         if(!isNode(nodeId)) return false;\n         if(addr==msg.sender) return true;\n         \n         Node storage n = Nodes[nodeId];\n         if(n.canAccess[addr] == -1)  return false;  //address is blacklisted \n         if(n.canAccess[address(0x0)] == 3) return false; //none can read\n         if(n.canAccess[address(0x0)] > 0)  return true;  //everyone can access\n         return n.canAccess[addr]>0;\n     }\n    function canWrite(bytes32 nodeId, address addr) public view returns (bool) {\n         if(!isNode(nodeId)) return false;\n         if(addr==msg.sender) return true;\n         \n         Node storage n = Nodes[nodeId];\n         if(n.canAccess[addr] == -1)  return false;  //address is blacklisted \n         if(n.canAccess[address(0x0)] > 1) return true; //everyone can write\n         return n.canAccess[addr]>1;\n     }\n    function canOverwrite(bytes32 nodeId, address addr) public view returns (bool) {\n         if(!isNode(nodeId)) return false;\n         if(addr==msg.sender) return true;\n         Node storage n = Nodes[nodeId];\n         \n         if(n.canAccess[addr] == -1)  return false;  //address is blacklisted \n         if(n.canAccess[address(0x0)] > 3) return true; //everyone can overwrite\n         return n.canAccess[addr] > 3; // yes you can overwrite\n     }\n    ///////////////////////////////////////////////////////////////////////////////////////////       \n    function deleteNode(bytes32 nodeId) public returns (bool) {\n        if(!canWrite(nodeId, msg.sender)) return false;\n        \n        //bytes32 folder = nodeIdToFolder[nodeId];\n        //if(folder==0x0) return false; // no mapping to folder\n\n        Node storage node = Nodes[nodeId];\n        if(removeChildAt(node.parent, node.index)) \n        {\n            uint256 index = nodesIndex[nodeId]; \n            if(index!=0)\n            {\n                Nodes[nodeId].isNode = false;\n                nodesIndex[nodeId] = 0;\n        \n                nodes[index] = nodes[nodes.length-1];\n                delete nodes[nodes.length-1];\n                nodes.length--;\n                \n                //!emit NodeDelete(nodeId, folder);\n                return true;\n            }\n        }\n        return false;\n    }     \n     \n    // problem is that subFolder is added to folderNodes mapping\n    // this means subFolder can be only one and must be unique \n    // which in turn means that we can't have same subFolder in different parent protocols\n    // add subProtocol to parentProtocol (protocolnodeId)\n    // so if if parent is bin, then add subFolder as \"/bin/subFolderName\" \n    // returns nodeId of new subFolder or 0x0 if error \n    function addChildNode(bytes32 parentNodeId, bytes32 subNodeId) public returns (bytes32) {\n        bytes32 parentId = parentNodeId;\n        if(!isNode(parentId)) // parentNode is not a node, then write to root\n           parentId = rootNodeId;\n        \n        if(!canRead(parentId, msg.sender)) // no read permission for parent\n           parentId = sharedNodeId;\n\n        if(isNode(subNodeId)) // if subProtocol exists as protocol, then fail\n        {\n            if(!canRead(subNodeId, msg.sender)) // no read permission \n               return 0x0;\n               \n            return subNodeId;\n        }\n        \n        if(!canWrite(parentId, msg.sender)) // no write permission\n           return 0x0;\n        \n        bytes32 newNodeId = addNode(parentId, subNodeId); // add child to parent\n\n        //folderNodes[subNodeId] = newNodeId; \n        nodesIndex[subNodeId] = nodes.push(subNodeId);\n        //nodeIdToFolder[newNodeId] = subNodeId; // we need mapping to folder from nodeId\n        //!emit AddFolder(newnodeId, subFolder);\n        \n        if(msg.sender!=owner)\n          setNodeAccess(newNodeId, msg.sender, 2); // give r/w access to creator of node\n           \n        return newNodeId; \n    }\n    ///////////////////////////////////////////////////////////////////////////////////////////      \n    // setKeyValue, will suceed only when no such key with value exist\n    function setKeyValue(bytes32 nodeId, bytes32 key, bytes32 value) public returns (bool) {\n         //Node memory targetNode = Nodes[nodeId];\n         \n         if(!isNode(nodeId)) {// folder does not exist in mapping to all folder\n            bytes32 makeChildIn = sharedNodeId; // everything goes to incoming\n            if(msg.sender == owner) // owner can create in root \n               makeChildIn = rootNodeId;\n              \n            nodeId = addChildNode(makeChildIn, nodeId);\n         }\n         //!emit KeyValueSetFolder(targetNode, folder);\n         return writeKeyValue(nodeId, key, value);\n    }\n    function writeKeyValue(bytes32 nodeId, bytes32 key, bytes32 value) public returns (bool) {\n         if(!canWrite(nodeId, msg.sender)) // no read permission for parent\n           return false;\n         \n         Node storage node = Nodes[nodeId];\n         \n         if(node.valuesMap[key] == 0x0) // no such value yet, could be replaced by keyNodeIdValues[key][folder].length==0\n         {\n            node.keys.push(key);\n            node.values.push(value); \n            \n            node.valuesMap[key] = value;\n            keyNodeIdValues[key][nodeId].push(value);\n            //!emit KeyValueSet(nodeId, key, value);\n            return true; \n         } \n         \n         keyNodeIdValues[key][nodeId].push(value);\n         return false;\n    }\n    ///////////////////////////////////////////////////////////////////////////////////////////       \n\n    // getKeyValues \n    function getKeysValues(bytes32 nodeId) public view returns (bytes32[] memory keys,bytes32[] memory values) {\n         bytes32[] memory ret;\n         if(!canRead(nodeId, msg.sender)) return (ret,ret);\n             \n         keys =  Nodes[nodeId].keys;  \n         values = Nodes[nodeId].values;\n         return (keys, values);\n    }\n    // getKeyValueAt\n    function getKeyValueAt(bytes32 nodeId, uint index) public view returns (bytes32 key, bytes32 value) {\n         if(!canRead(nodeId, msg.sender)) return (0x0,0x0);\n             \n         return (Nodes[nodeId].keys[index],Nodes[nodeId].values[index]);\n    }\n    \n    ///////////////////////////////////////////////////////////////////////////////////////////\n    // getKeys \n    function getKeys(bytes32 nodeId) view public returns (bytes32[] memory) {\n         bytes32[] memory ret;\n         if(!canRead(nodeId, msg.sender)) return ret;\n\n         return Nodes[nodeId].keys;\n     }\n    // get num keys\n    function getKeysCount(bytes32 nodeId) view public returns (uint) {\n         if(!canRead(nodeId, msg.sender)) return 0;\n             \n         return Nodes[nodeId].keys.length;\n     }\n    // get key at\n    function getKeyAt(bytes32 nodeId, uint index) view public returns (bytes32) {\n         if(!canRead(nodeId, msg.sender)) return 0x0;\n             \n         return Nodes[nodeId].keys[index];\n     }\n     \n    /////////////////////////////////////////////////////////////////////////////////////////// \n    // getValues \n    function getValue(bytes32 nodeId, bytes32 key) public view returns (bytes32) {\n         if(!canRead(nodeId, msg.sender)) return 0x0;\n             \n         return Nodes[nodeId].valuesMap[key];\n    }\n    // get num values\n    function getValuesCount(bytes32 nodeId) view public returns (uint) {\n         if(!canRead(nodeId, msg.sender)) return 0;\n             \n         return Nodes[nodeId].values.length;\n     }\n    // get value at  \n    function getValueAt(bytes32 nodeId, uint index) view public returns (bytes32) {\n         if(!canRead(nodeId, msg.sender)) return 0x0;\n             \n         return Nodes[nodeId].values[index];\n     }\n    \n    ///////////////////////////////////////////////////////////////////////////////////////////\n    // overwrite in folder with new sender and new feed\n    function overwriteKey(bytes32 nodeId, uint index, bytes32 key, bytes32 newValue) public returns (bool) {\n        if(!canOverwrite(nodeId, msg.sender)) return false;\n        \n        Node storage node = Nodes[nodeId];\n        if(index<node.values.length) // no such feed yet\n        {\n            bytes32 prevKey = node.keys[index]; // where is previous\n            node.valuesMap[prevKey] = 0x0; // set it to null \n            \n            node.keys[index] = key;\n            node.values[index] = newValue; \n            node.valuesMap[key] = newValue; //\n            \n            keyNodeIdValues[key][nodeId].push(newValue);\n            \n            //!emit OverwriteKeyValue(nodeId,index,key,newValue);\n            return true;\n        }        \n        return false;\n     }\n    // remove key\n    function removeKeyAt(bytes32 nodeId, uint256 index) public returns (bool) {\n         if(!canWrite(nodeId, msg.sender)) return false; \n         \n         Node storage node = Nodes[nodeId];\n         \n         bytes32 atKey = node.keys[index];\n         //bytes32 preValue = node.values[index];\n         require(atKey!=0x0); // node has no sender at index \n         \n         node.valuesMap[atKey] = 0x0; // clear sender         \n         \n         node.keys[index] = node.keys[node.keys.length-1];\n         delete node.keys[node.keys.length-1];\n         node.keys.length--;\n         \n         node.values[index] = node.values[node.values.length-1];\n         delete node.values[node.values.length-1];\n         node.values.length--;\n         \n         //!emit RemoveKeyValue(nodeId, index, atKey, preValue);\n         return true;\n    }\n    \n    ///////////////////////////////////////////////////////////////////////////////////////////      \n    function getNodesIndex(bytes32 nodeId) view public returns (uint256) { // will get protocol node address\n         return nodesIndex[nodeId];\n     }\n\n    // ONLY OWNERS CAN ACCESS COMPLETE INFORMATION\n    ///////////////////////////////////////////////////////////////////////////////////////////      \n    // get all values ever, chronologically, never gets deleted, only added\n    function getNodeValuesForAKey(bytes32 nodeId, bytes32 key) onlyOwner view public returns (bytes32[] memory) {\n       return keyNodeIdValues[key][nodeId];\n    }\n     \n    ///////////////////////////////////////////////////////////////////////////////////////////      \n    function getNodes() onlyOwner view public returns (bytes32[] memory) { // get all folder\n     return nodes;\n    }     \n    function getNodeCount() onlyOwner view public returns (uint256) { // get num of folder\n     return nodes.length;\n    }\n    function getNodeAt(uint256 idx) onlyOwner view public returns (bytes32) { // get folder by idx\n     return nodes[idx];\n    }\n    ///////////////////////////////////////////////////////////////////////////////////////////\n    \n    // fallback function to accept ETH into contract.\n    function () external payable { }\n    // allow owner to remove funds  \n    function getFunds() onlyOwner public {\n        owner.transfer(address(this).balance);\n    }    \n}\n\ncontract Multibox\n{\n    address payable public owner;\n    modifier onlyOwner() {\n        require(msg.sender == owner);\n        _;\n    }\n    function changeOwner(address payable _newOwner) public onlyOwner { owner = _newOwner; }\n    // addresses of roots     \n    KeyValueTree[] roots; \n    \n    //!event Initialized();\n    //!event RootCreated(KeyValueTree);\n    //!event RootAdded(KeyValueTree);\n    //!event RootFailedNoOwner(address sender, address  owner);\n    //!event RootRemoved(uint256);\n    //!event RootRevoked(uint256);\n    //!event FundsRemoved(uint256);\n    ////////////////////////////////////////////////////////////////////////////////////////////////\n    //!event AccessRequested(address, Multibox, KeyValueTree, bytes32);\n    //!event AccessRequestFail(address, Multibox, KeyValueTree, bytes32 nodeId, bool canOwnerWrite);\n    //!event AccessRequestFailNotOwner(address kvtOwner, address multiboxOwner); \n    //!event AccessGiven(address, address to);\n    //!event AccessTerminated(address, address to);\n    \n    constructor() public {\n        //version = 1;\n        owner = msg.sender;\n    }\n    \n    function init() public returns (KeyValueTree) {\n        KeyValueTree a; \n        if(roots.length==0)//Initialized\n        {\n           a = createRoot(owner);\n           //!emit Initialized(); \n        }\n        return a;\n    }\n    \n    // any one can create new root, but ownership will belong to owner of multibox, \n    // while r/w of shared node can be set to whoHasReadWriteRights\n    function createRoot(address whoHasReadWriteRights) public returns (KeyValueTree) {\n        KeyValueTree kvt = new KeyValueTree(owner);\n        if(roots.length==0)\n          kvt.setNodeAccess(kvt.getSharedId(), whoHasReadWriteRights, 3); // first root shared node can anyone write to, but can't read from\n        else \n          kvt.setNodeAccess(kvt.getSharedId(), whoHasReadWriteRights, 2); // whoHasReadWriteRights r/w \n          \n        //!emit RootCreated(kvt);  \n        return addRoot(kvt);\n    }\n    function getRoots() public view returns (KeyValueTree[] memory) {\n        return roots;\n    }\n    function getRootsCount() public view returns (uint256) {\n        return roots.length;\n    }\n    function getRootAt(uint256 index) public view returns (KeyValueTree) {\n        return roots[index];\n    }\n    // others can add KeyValueTrees (but need to set access rights by themselfs)\n    function addRoot(KeyValueTree kvt) public returns (KeyValueTree) {\n        \n        if(kvt.owner() != msg.sender) // not owner of tree? can't move then \n        {\n            //!emit RootFailedNoOwner(msg.sender, kvt.owner());\n            return KeyValueTree(0x0);\n        }\n\n        roots.push(kvt);\n        //!emit RootAdded(kvt);  \n        return kvt;\n    }\n    // owner can remove any root except 0 \n    function removeRoot(uint256 index) onlyOwner public returns (uint256) {\n        if(index==0) return 0; // fail cant NEVER remove root\n        \n        roots[index] = roots[roots.length-1];\n        delete roots[roots.length-1];\n        roots.length--;\n        //!emit RootRemoved(index);\n        return roots.length;\n    }\n    // others can remove their trees \n    function revokeRoot(uint256 index) public returns (uint256) {\n        KeyValueTree kvt = roots[index];\n         \n        if(index==0) return 0; // fail cant NEVER remove root\n        if(kvt.owner() == msg.sender) // not owner of tree? can't move then \n           return 0;\n        \n        roots[index] = roots[roots.length-1];\n        delete roots[roots.length-1];\n        roots.length--;\n        //!emit RootRevoked(index);\n        return roots.length;\n    }\n    \n    // fallback function to accept ETH into contract.\n    function () external payable {\n    }\n    // allow owner to remove funds  \n    function removeFunds() onlyOwner public {\n        //!emit FundsRemoved(address(this).balance);\n        owner.transfer(address(this).balance);\n    }\n\n    // ok so maybe this should be on Multibox level, multibox,kvt, nodeId\n    DataRequestEscrow[] accessRequests;\n    mapping(address => uint256) accessRequestsIndex; // map of folder to index (+1)\n    \n    function requestAccess(KeyValueTree kvt, bytes32 nodeId) public returns(DataRequestEscrow)\n    {\n        DataRequestEscrow dr;\n        bool canWrite = kvt.canWrite(nodeId, owner);\n        if(kvt.owner()!=this.owner())\n        {\n            //!emit AccessRequestFailNotOwner(kvt.owner(), this.owner());\n            return dr;\n        }\n        if(canWrite)\n        {\n            dr = new DataRequestEscrow(msg.sender, this, kvt, nodeId); \n            accessRequestsIndex[address(dr)] = accessRequests.push(dr);\n            //!emit AccessRequested(msg.sender, this, kvt, nodeId);\n            return dr;\n        }\n        \n        //!emit AccessRequestFail(msg.sender, this, kvt, nodeId, canWrite);\n        return dr;\n    }\n    function allowAccess(DataRequestEscrow dr) public onlyOwner \n    {\n        uint256 index = accessRequestsIndex[address(dr)];\n        if(index!=0) \n        {\n            if(dr.approve())\n            {\n                //emit AccessGiven(address(dr), dr.whoRequester());\n                accessRequestsIndex[address(dr)] = 0;\n                \n                accessRequests[index-1] = accessRequests[accessRequests.length-1];\n                delete accessRequests[accessRequests.length-1];\n                accessRequests.length--;\n                \n                dr.finalize(); // destroy contract, funds are moved to multibox.owner\n            }\n        }\n        dr.denyApproval();\n    }\n    function amountAvailable(DataRequestEscrow dr) public view returns(uint balance)\n    {\n        return address(dr).balance;\n    }\n    function getDataRequests() public view returns(DataRequestEscrow[] memory requests)\n    {\n        return accessRequests;\n    }\n}\n\n// kvt, nodeId\n// what we want: we want to assure that if addr1 gives data to addr2, addr2 will really pay \n// like escrow:\n// 1. alice request data kvt,nodeId(,key,value) from bob\n// 2. bob sets price\n// 3. alice pays price to escrow\n// 4. bob transfers knt,nodeId,key,value to alice\n// 5. bob takes the money\n\n// this could be extended to buy/sell \ncontract DataRequestEscrow {\n    Multibox multibox;\n    KeyValueTree kvt; \n    bytes32 nodeId; \n    bytes32 proofData;\n\n    address payable requester;\n    modifier onlyOwnerMultibox() {\n        require(msg.sender == multibox.owner());\n        _;\n    }\n\n    constructor(address payable whoIsRequesting, Multibox mb, KeyValueTree keyValueTree, bytes32 targetnodeId) public\n    {\n        requester = whoIsRequesting;\n        multibox = mb;\n        kvt = keyValueTree;\n        nodeId = targetnodeId;\n    }\n\n    function deposit() external payable {\n        require(msg.sender==requester);\n        require(msg.value > 0);\n    }\n    \n    function whoIsRequester() onlyOwnerMultibox public view returns(address payable)\n    {\n        return requester;\n    }\n\n    function approve() public  /*onlyOwnerMultibox external*/ returns (bool) {\n        if(kvt.isNode(nodeId))\n        {\n            int readRights = kvt.setNodeAccess(nodeId, requester, 1); // give read permission \n            if(readRights==1) {\n               return true;\n            }\n        }\n        return false;\n    }\n    function setProofOwnerShared(bytes32 proofDataLocation) onlyOwnerMultibox public returns (bool) {\n        proofData = proofDataLocation;\n    }\n    \n    function verifyOwnerShared(bytes32 h, uint8 v, bytes32 r, bytes32 s) public returns (address) {\n        bytes memory prefix = \"\\x19Ethereum Signed Message:\\n32\";\n\n        bytes32 dataHash = keccak256(abi.encodePacked(prefix, h));\n        address addr = ecrecover(dataHash, v, r, s);\n        \n        //proofOfSharing == data1Hash;\n        if(addr == kvt.owner())\n           approve();\n        else \n           abortRequest();\n    }\n    function finalize() onlyOwnerMultibox external \n    {\n        selfdestruct(multibox.owner()); // this failed, give funds back\n    }\n    function denyApproval() onlyOwnerMultibox external \n    {\n        selfdestruct(requester); // this failed, give funds back\n    }\n    function abortRequest() public  \n    {\n        require(msg.sender==requester);\n        selfdestruct(requester); // this failed, give funds back\n    }\n}\n",
  "sourcePath": "C:/Users/tex/source/repos/FairDataSociety/multibox/contracts/Multibox.sol",
  "compiler": {
    "name": "solc",
    "version": "0.5.0+commit.1d4f565a.Emscripten.clang"
  },
  "schemaVersion": "3.0.6",
  "updatedAt": "2019-05-16T19:36:39.977Z",
  "devdoc": {
    "methods": {}
  },
  "userdoc": {
    "methods": {}
  }
}