{
  "contractName": "ENS",
  "abi": [
    {
      "inputs": [],
      "payable": false,
      "stateMutability": "nonpayable",
      "type": "constructor"
    },
    {
      "anonymous": false,
      "inputs": [
        {
          "indexed": true,
          "name": "node",
          "type": "bytes32"
        },
        {
          "indexed": true,
          "name": "label",
          "type": "bytes32"
        },
        {
          "indexed": false,
          "name": "owner",
          "type": "address"
        }
      ],
      "name": "NewOwner",
      "type": "event"
    },
    {
      "anonymous": false,
      "inputs": [
        {
          "indexed": true,
          "name": "node",
          "type": "bytes32"
        },
        {
          "indexed": false,
          "name": "owner",
          "type": "address"
        }
      ],
      "name": "Transfer",
      "type": "event"
    },
    {
      "anonymous": false,
      "inputs": [
        {
          "indexed": true,
          "name": "node",
          "type": "bytes32"
        },
        {
          "indexed": false,
          "name": "resolver",
          "type": "address"
        }
      ],
      "name": "NewResolver",
      "type": "event"
    },
    {
      "anonymous": false,
      "inputs": [
        {
          "indexed": true,
          "name": "node",
          "type": "bytes32"
        },
        {
          "indexed": false,
          "name": "ttl",
          "type": "uint64"
        }
      ],
      "name": "NewTTL",
      "type": "event"
    },
    {
      "anonymous": false,
      "inputs": [
        {
          "indexed": true,
          "name": "addr",
          "type": "address"
        },
        {
          "indexed": false,
          "name": "str",
          "type": "string"
        }
      ],
      "name": "LogAddr",
      "type": "event"
    },
    {
      "anonymous": false,
      "inputs": [
        {
          "indexed": true,
          "name": "b32",
          "type": "bytes32"
        },
        {
          "indexed": false,
          "name": "str",
          "type": "string"
        }
      ],
      "name": "LogB32",
      "type": "event"
    },
    {
      "anonymous": false,
      "inputs": [
        {
          "indexed": true,
          "name": "bl",
          "type": "bool"
        },
        {
          "indexed": false,
          "name": "str",
          "type": "string"
        }
      ],
      "name": "LogBool",
      "type": "event"
    },
    {
      "constant": true,
      "inputs": [
        {
          "name": "node",
          "type": "bytes32"
        }
      ],
      "name": "owner",
      "outputs": [
        {
          "name": "",
          "type": "address"
        }
      ],
      "payable": false,
      "stateMutability": "view",
      "type": "function"
    },
    {
      "constant": true,
      "inputs": [
        {
          "name": "node",
          "type": "bytes32"
        }
      ],
      "name": "resolver",
      "outputs": [
        {
          "name": "",
          "type": "address"
        }
      ],
      "payable": false,
      "stateMutability": "view",
      "type": "function"
    },
    {
      "constant": true,
      "inputs": [
        {
          "name": "node",
          "type": "bytes32"
        }
      ],
      "name": "ttl",
      "outputs": [
        {
          "name": "",
          "type": "uint64"
        }
      ],
      "payable": false,
      "stateMutability": "view",
      "type": "function"
    },
    {
      "constant": false,
      "inputs": [
        {
          "name": "node",
          "type": "bytes32"
        },
        {
          "name": "owner",
          "type": "address"
        }
      ],
      "name": "setOwner",
      "outputs": [],
      "payable": false,
      "stateMutability": "nonpayable",
      "type": "function"
    },
    {
      "constant": false,
      "inputs": [
        {
          "name": "node",
          "type": "bytes32"
        },
        {
          "name": "label",
          "type": "bytes32"
        },
        {
          "name": "owner",
          "type": "address"
        }
      ],
      "name": "setSubnodeOwner",
      "outputs": [],
      "payable": false,
      "stateMutability": "nonpayable",
      "type": "function"
    },
    {
      "constant": false,
      "inputs": [
        {
          "name": "node",
          "type": "bytes32"
        },
        {
          "name": "resolver",
          "type": "address"
        }
      ],
      "name": "setResolver",
      "outputs": [],
      "payable": false,
      "stateMutability": "nonpayable",
      "type": "function"
    },
    {
      "constant": false,
      "inputs": [
        {
          "name": "node",
          "type": "bytes32"
        },
        {
          "name": "ttl",
          "type": "uint64"
        }
      ],
      "name": "setTTL",
      "outputs": [],
      "payable": false,
      "stateMutability": "nonpayable",
      "type": "function"
    }
  ],
  "bytecode": "0x608060405234801561001057600080fd5b50336000808060010260001916815260200190815260200160002060000160006101000a81548173ffffffffffffffffffffffffffffffffffffffff021916908373ffffffffffffffffffffffffffffffffffffffff1602179055506111278061007b6000396000f300608060405260043610610083576000357c0100000000000000000000000000000000000000000000000000000000900463ffffffff1680630178b8bf1461008857806302571be3146100f957806306ab59231461016a57806314ab9038146101c957806316a25cbd1461020e5780631896f70a146102675780635b0fc9c3146102b8575b600080fd5b34801561009457600080fd5b506100b76004803603810190808035600019169060200190929190505050610309565b604051808273ffffffffffffffffffffffffffffffffffffffff1673ffffffffffffffffffffffffffffffffffffffff16815260200191505060405180910390f35b34801561010557600080fd5b506101286004803603810190808035600019169060200190929190505050610350565b604051808273ffffffffffffffffffffffffffffffffffffffff1673ffffffffffffffffffffffffffffffffffffffff16815260200191505060405180910390f35b34801561017657600080fd5b506101c760048036038101908080356000191690602001909291908035600019169060200190929190803573ffffffffffffffffffffffffffffffffffffffff169060200190929190505050610397565b005b3480156101d557600080fd5b5061020c6004803603810190808035600019169060200190929190803567ffffffffffffffff169060200190929190505050610718565b005b34801561021a57600080fd5b5061023d6004803603810190808035600019169060200190929190505050610a30565b604051808267ffffffffffffffff1667ffffffffffffffff16815260200191505060405180910390f35b34801561027357600080fd5b506102b66004803603810190808035600019169060200190929190803573ffffffffffffffffffffffffffffffffffffffff169060200190929190505050610a6b565b005b3480156102c457600080fd5b506103076004803603810190808035600019169060200190929190803573ffffffffffffffffffffffffffffffffffffffff169060200190929190505050610db3565b005b6000806000836000191660001916815260200190815260200160002060010160009054906101000a900473ffffffffffffffffffffffffffffffffffffffff169050919050565b6000806000836000191660001916815260200190815260200160002060000160009054906101000a900473ffffffffffffffffffffffffffffffffffffffff169050919050565b60008380600019167f0df007c7229316e5f820623507d7190051461c1e86dd0fd25c31fd3a39fe82bf6040518080602001828103825260088152602001807f656e73206e6f646500000000000000000000000000000000000000000000000081525060200191505060405180910390a2600080826000191660001916815260200190815260200160002060000160009054906101000a900473ffffffffffffffffffffffffffffffffffffffff1673ffffffffffffffffffffffffffffffffffffffff167fce944ecad1fe99f8ace6dd2f35980677f6aa794750b3c67a37253c74c4f474146040518080602001828103825260098152602001807f656e73206f776e6572000000000000000000000000000000000000000000000081525060200191505060405180910390a23373ffffffffffffffffffffffffffffffffffffffff167fce944ecad1fe99f8ace6dd2f35980677f6aa794750b3c67a37253c74c4f4741460405180806020018281038252600a8152602001807f656e732073656e6465720000000000000000000000000000000000000000000081525060200191505060405180910390a23373ffffffffffffffffffffffffffffffffffffffff16600080836000191660001916815260200190815260200160002060000160009054906101000a900473ffffffffffffffffffffffffffffffffffffffff1673ffffffffffffffffffffffffffffffffffffffff161415157f08644d3c6e904fda6e13c2d1a602ebd22820e5eab8675490add550a6aa542bae60405180806020018281038252600f8152602001807f6f776e65722069732073656e646572000000000000000000000000000000000081525060200191505060405180910390a2848460405180836000191660001916815260200182600019166000191681526020019250505060405180910390209150836000191685600019167fce0457fe73731f824cc272376169235128c118b49d344817417c6d108d155e8285604051808273ffffffffffffffffffffffffffffffffffffffff1673ffffffffffffffffffffffffffffffffffffffff16815260200191505060405180910390a382600080846000191660001916815260200190815260200160002060000160006101000a81548173ffffffffffffffffffffffffffffffffffffffff021916908373ffffffffffffffffffffffffffffffffffffffff1602179055505050505050565b8180600019167f0df007c7229316e5f820623507d7190051461c1e86dd0fd25c31fd3a39fe82bf6040518080602001828103825260088152602001807f656e73206e6f646500000000000000000000000000000000000000000000000081525060200191505060405180910390a2600080826000191660001916815260200190815260200160002060000160009054906101000a900473ffffffffffffffffffffffffffffffffffffffff1673ffffffffffffffffffffffffffffffffffffffff167fce944ecad1fe99f8ace6dd2f35980677f6aa794750b3c67a37253c74c4f474146040518080602001828103825260098152602001807f656e73206f776e6572000000000000000000000000000000000000000000000081525060200191505060405180910390a23373ffffffffffffffffffffffffffffffffffffffff167fce944ecad1fe99f8ace6dd2f35980677f6aa794750b3c67a37253c74c4f4741460405180806020018281038252600a8152602001807f656e732073656e6465720000000000000000000000000000000000000000000081525060200191505060405180910390a23373ffffffffffffffffffffffffffffffffffffffff16600080836000191660001916815260200190815260200160002060000160009054906101000a900473ffffffffffffffffffffffffffffffffffffffff1673ffffffffffffffffffffffffffffffffffffffff161415157f08644d3c6e904fda6e13c2d1a602ebd22820e5eab8675490add550a6aa542bae60405180806020018281038252600f8152602001807f6f776e65722069732073656e646572000000000000000000000000000000000081525060200191505060405180910390a282600019167f1d4f9bbfc9cab89d66e1a1562f2233ccbf1308cb4f63de2ead5787adddb8fa6883604051808267ffffffffffffffff1667ffffffffffffffff16815260200191505060405180910390a281600080856000191660001916815260200190815260200160002060010160146101000a81548167ffffffffffffffff021916908367ffffffffffffffff160217905550505050565b6000806000836000191660001916815260200190815260200160002060010160149054906101000a900467ffffffffffffffff169050919050565b8180600019167f0df007c7229316e5f820623507d7190051461c1e86dd0fd25c31fd3a39fe82bf6040518080602001828103825260088152602001807f656e73206e6f646500000000000000000000000000000000000000000000000081525060200191505060405180910390a2600080826000191660001916815260200190815260200160002060000160009054906101000a900473ffffffffffffffffffffffffffffffffffffffff1673ffffffffffffffffffffffffffffffffffffffff167fce944ecad1fe99f8ace6dd2f35980677f6aa794750b3c67a37253c74c4f474146040518080602001828103825260098152602001807f656e73206f776e6572000000000000000000000000000000000000000000000081525060200191505060405180910390a23373ffffffffffffffffffffffffffffffffffffffff167fce944ecad1fe99f8ace6dd2f35980677f6aa794750b3c67a37253c74c4f4741460405180806020018281038252600a8152602001807f656e732073656e6465720000000000000000000000000000000000000000000081525060200191505060405180910390a23373ffffffffffffffffffffffffffffffffffffffff16600080836000191660001916815260200190815260200160002060000160009054906101000a900473ffffffffffffffffffffffffffffffffffffffff1673ffffffffffffffffffffffffffffffffffffffff161415157f08644d3c6e904fda6e13c2d1a602ebd22820e5eab8675490add550a6aa542bae60405180806020018281038252600f8152602001807f6f776e65722069732073656e646572000000000000000000000000000000000081525060200191505060405180910390a282600019167f335721b01866dc23fbee8b6b2c7b1e14d6f05c28cd35a2c934239f94095602a083604051808273ffffffffffffffffffffffffffffffffffffffff1673ffffffffffffffffffffffffffffffffffffffff16815260200191505060405180910390a281600080856000191660001916815260200190815260200160002060010160006101000a81548173ffffffffffffffffffffffffffffffffffffffff021916908373ffffffffffffffffffffffffffffffffffffffff160217905550505050565b8180600019167f0df007c7229316e5f820623507d7190051461c1e86dd0fd25c31fd3a39fe82bf6040518080602001828103825260088152602001807f656e73206e6f646500000000000000000000000000000000000000000000000081525060200191505060405180910390a2600080826000191660001916815260200190815260200160002060000160009054906101000a900473ffffffffffffffffffffffffffffffffffffffff1673ffffffffffffffffffffffffffffffffffffffff167fce944ecad1fe99f8ace6dd2f35980677f6aa794750b3c67a37253c74c4f474146040518080602001828103825260098152602001807f656e73206f776e6572000000000000000000000000000000000000000000000081525060200191505060405180910390a23373ffffffffffffffffffffffffffffffffffffffff167fce944ecad1fe99f8ace6dd2f35980677f6aa794750b3c67a37253c74c4f4741460405180806020018281038252600a8152602001807f656e732073656e6465720000000000000000000000000000000000000000000081525060200191505060405180910390a23373ffffffffffffffffffffffffffffffffffffffff16600080836000191660001916815260200190815260200160002060000160009054906101000a900473ffffffffffffffffffffffffffffffffffffffff1673ffffffffffffffffffffffffffffffffffffffff161415157f08644d3c6e904fda6e13c2d1a602ebd22820e5eab8675490add550a6aa542bae60405180806020018281038252600f8152602001807f6f776e65722069732073656e646572000000000000000000000000000000000081525060200191505060405180910390a282600019167fd4735d920b0f87494915f556dd9b54c8f309026070caea5c737245152564d26683604051808273ffffffffffffffffffffffffffffffffffffffff1673ffffffffffffffffffffffffffffffffffffffff16815260200191505060405180910390a281600080856000191660001916815260200190815260200160002060000160006101000a81548173ffffffffffffffffffffffffffffffffffffffff021916908373ffffffffffffffffffffffffffffffffffffffff1602179055505050505600a165627a7a72305820f9b0364f75ed2fd1fd93ae550a6ee15efd0b657a4d364fba1db1ae08514ab05d0029",
  "source": "pragma solidity ^0.4.17;\n\n/**\n * The ENS registry contract.\n */\ncontract ENS {\n    // Logged when the owner of a node assigns a new owner to a subnode.\n    event NewOwner(bytes32 indexed node, bytes32 indexed label, address owner);\n\n    // Logged when the owner of a node transfers ownership to a new account.\n    event Transfer(bytes32 indexed node, address owner);\n\n    // Logged when the resolver for a node changes.\n    event NewResolver(bytes32 indexed node, address resolver);\n\n    // Logged when the TTL of a node changes\n    event NewTTL(bytes32 indexed node, uint64 ttl);\n\n    struct Record {\n        address owner;\n        address resolver;\n        uint64 ttl;\n    }\n\n    event LogAddr(\n    address indexed addr,\n    string str\n    );\n\n    event LogB32(\n    bytes32 indexed b32,\n    string str\n    );   \n\n    event LogBool(\n        bool indexed bl,\n        string str\n        );\n\n    mapping (bytes32 => Record) records;\n\n    // Permits modifications only by the owner of the specified node.\n    modifier only_owner(bytes32 node) {\n        emit LogB32(node, 'ens node');\n        emit LogAddr(records[node].owner, 'ens owner');\n        emit LogAddr(msg.sender, 'ens sender');\n        emit LogBool(records[node].owner == msg.sender, 'owner is sender');\n        // if (records[node].owner != msg.sender) throw;\n        _;\n    }\n\n    /**\n     * Constructs a new ENS registrar.\n     */\n    function ENS() public {\n        records[0].owner = msg.sender;\n    }\n\n    /**\n     * Returns the address that owns the specified node.\n     */\n    function owner(bytes32 node) public constant returns (address) {\n        return records[node].owner;\n    }\n\n    /**\n     * Returns the address of the resolver for the specified node.\n     */\n    function resolver(bytes32 node) public constant returns (address) {\n        return records[node].resolver;\n    }\n\n    /**\n     * Returns the TTL of a node, and any records associated with it.\n     */\n    function ttl(bytes32 node) public constant returns (uint64) {\n        return records[node].ttl;\n    }\n\n    /**\n     * Transfers ownership of a node to a new address. May only be called by the current\n     * owner of the node.\n     * @param node The node to transfer ownership of.\n     * @param owner The address of the new owner.\n     */\n    function setOwner(bytes32 node, address owner) public only_owner(node) {\n        Transfer(node, owner);\n        records[node].owner = owner;\n    }\n\n    /**\n     * Transfers ownership of a subnode sha3(node, label) to a new address. May only be\n     * called by the owner of the parent node.\n     * @param node The parent node.\n     * @param label The hash of the label specifying the subnode.\n     * @param owner The address of the new owner.\n     */\n    function setSubnodeOwner(bytes32 node, bytes32 label, address owner) public only_owner(node) {\n        var subnode = sha3(node, label);\n        NewOwner(node, label, owner);\n        records[subnode].owner = owner;\n    }\n\n    /**\n     * Sets the resolver address for the specified node.\n     * @param node The node to update.\n     * @param resolver The address of the resolver.\n     */\n    function setResolver(bytes32 node, address resolver) public only_owner(node) {\n        NewResolver(node, resolver);\n        records[node].resolver = resolver;\n    }\n\n    /**\n     * Sets the TTL for the specified node.\n     * @param node The node to update.\n     * @param ttl The TTL in seconds.\n     */\n    function setTTL(bytes32 node, uint64 ttl) public only_owner(node) {\n        NewTTL(node, ttl);\n        records[node].ttl = ttl;\n    }\n}\n",
  "sourcePath": "/Users/significance/Code/df/subdomain-registrar/contracts/ENS.sol",
  "compiler": {
    "name": "solc",
    "version": "0.4.24+commit.e67f0147.Emscripten.clang"
  },
  "schemaVersion": "2.0.1",
  "updatedAt": "2019-03-04T11:15:28.422Z"
}