{
  "contractName": "FIFSRegistrar",
  "abi": [
    {
      "inputs": [
        {
          "name": "ensAddr",
          "type": "address"
        },
        {
          "name": "node",
          "type": "bytes32"
        }
      ],
      "payable": false,
      "stateMutability": "nonpayable",
      "type": "constructor"
    },
    {
      "anonymous": false,
      "inputs": [
        {
          "indexed": true,
          "name": "addr",
          "type": "address"
        },
        {
          "indexed": false,
          "name": "str",
          "type": "string"
        }
      ],
      "name": "LogAddr",
      "type": "event"
    },
    {
      "anonymous": false,
      "inputs": [
        {
          "indexed": true,
          "name": "b32",
          "type": "bytes32"
        },
        {
          "indexed": false,
          "name": "str",
          "type": "string"
        }
      ],
      "name": "LogB32",
      "type": "event"
    },
    {
      "anonymous": false,
      "inputs": [
        {
          "indexed": true,
          "name": "bl",
          "type": "bool"
        },
        {
          "indexed": false,
          "name": "str",
          "type": "string"
        }
      ],
      "name": "LogBool",
      "type": "event"
    },
    {
      "constant": false,
      "inputs": [
        {
          "name": "subnode",
          "type": "bytes32"
        },
        {
          "name": "owner",
          "type": "address"
        }
      ],
      "name": "register",
      "outputs": [],
      "payable": false,
      "stateMutability": "nonpayable",
      "type": "function"
    }
  ],
  "bytecode": "0x608060405234801561001057600080fd5b506040516040806108348339810180604052810190808051906020019092919080519060200190929190505050816000806101000a81548173ffffffffffffffffffffffffffffffffffffffff021916908373ffffffffffffffffffffffffffffffffffffffff1602179055508060018160001916905550505061079b806100996000396000f300608060405260043610610041576000357c0100000000000000000000000000000000000000000000000000000000900463ffffffff168063d22057a914610046575b600080fd5b34801561005257600080fd5b506100956004803603810190808035600019169060200190929190803573ffffffffffffffffffffffffffffffffffffffff169060200190929190505050610097565b005b8160003373ffffffffffffffffffffffffffffffffffffffff167fce944ecad1fe99f8ace6dd2f35980677f6aa794750b3c67a37253c74c4f474146040518080602001828103825260038152602001807f737472000000000000000000000000000000000000000000000000000000000081525060200191505060405180910390a281600019167f0df007c7229316e5f820623507d7190051461c1e86dd0fd25c31fd3a39fe82bf6040518080602001828103825260078152602001807f7375626e6f64650000000000000000000000000000000000000000000000000081525060200191505060405180910390a2600154600019167f0df007c7229316e5f820623507d7190051461c1e86dd0fd25c31fd3a39fe82bf6040518080602001828103825260088152602001807f726f6f744e6f646500000000000000000000000000000000000000000000000081525060200191505060405180910390a2600154826040518083600019166000191681526020018260001916600019168152602001925050506040518091039020600019167f0df007c7229316e5f820623507d7190051461c1e86dd0fd25c31fd3a39fe82bf6040518080602001828103825260048152602001807f686173680000000000000000000000000000000000000000000000000000000081525060200191505060405180910390a23373ffffffffffffffffffffffffffffffffffffffff167fce944ecad1fe99f8ace6dd2f35980677f6aa794750b3c67a37253c74c4f474146040518080602001828103825260068152602001807f73656e646572000000000000000000000000000000000000000000000000000081525060200191505060405180910390a26000809054906101000a900473ffffffffffffffffffffffffffffffffffffffff1673ffffffffffffffffffffffffffffffffffffffff166302571be36001548460405180836000191660001916815260200182600019166000191681526020019250505060405180910390206040518263ffffffff167c0100000000000000000000000000000000000000000000000000000000028152600401808260001916600019168152602001915050602060405180830381600087803b1580156103d757600080fd5b505af11580156103eb573d6000803e3d6000fd5b505050506040513d602081101561040157600080fd5b810190808051906020019092919050505073ffffffffffffffffffffffffffffffffffffffff167fce944ecad1fe99f8ace6dd2f35980677f6aa794750b3c67a37253c74c4f474146040518080602001828103825260058152602001807f6f776e657200000000000000000000000000000000000000000000000000000081525060200191505060405180910390a260008173ffffffffffffffffffffffffffffffffffffffff161415157f08644d3c6e904fda6e13c2d1a602ebd22820e5eab8675490add550a6aa542bae6040518080602001828103825260078152602001807f636f20697320300000000000000000000000000000000000000000000000000081525060200191505060405180910390a26000809054906101000a900473ffffffffffffffffffffffffffffffffffffffff1673ffffffffffffffffffffffffffffffffffffffff166302571be36001548460405180836000191660001916815260200182600019166000191681526020019250505060405180910390206040518263ffffffff167c0100000000000000000000000000000000000000000000000000000000028152600401808260001916600019168152602001915050602060405180830381600087803b1580156105db57600080fd5b505af11580156105ef573d6000803e3d6000fd5b505050506040513d602081101561060557600080fd5b8101908080519060200190929190505050905060008173ffffffffffffffffffffffffffffffffffffffff16148061066857503373ffffffffffffffffffffffffffffffffffffffff168173ffffffffffffffffffffffffffffffffffffffff16145b151561067357600080fd5b6000809054906101000a900473ffffffffffffffffffffffffffffffffffffffff1673ffffffffffffffffffffffffffffffffffffffff166306ab592360015486866040518463ffffffff167c010000000000000000000000000000000000000000000000000000000002815260040180846000191660001916815260200183600019166000191681526020018273ffffffffffffffffffffffffffffffffffffffff1673ffffffffffffffffffffffffffffffffffffffff1681526020019350505050600060405180830381600087803b15801561075157600080fd5b505af1158015610765573d6000803e3d6000fd5b50505050505050505600a165627a7a72305820c67080b762ffcfe67b4327ea8414cca341282be650ed331e976b9333d36040190029",
  "source": "pragma solidity ^0.4.18;\n\nimport \"./ENS.sol\";\n\n/**\n * A registrar that allocates subdomains to the first person to claim them.\n */\ncontract FIFSRegistrar {\n    ENS ens;\n    bytes32 rootNode;\n\n    event LogAddr(\n        address indexed addr,\n        string str\n        );\n\n    event LogB32(\n        bytes32 indexed b32,\n        string str\n        );   \n\n    event LogBool(\n        bool indexed bl,\n        string str\n        );            \n\n    modifier only_owner(bytes32 subnode) {\n        emit LogAddr(msg.sender, 'str');\n        emit LogB32(subnode, 'subnode');\n        emit LogB32(rootNode, 'rootNode');\n        emit LogB32(keccak256(rootNode, subnode), 'hash');\n        emit LogAddr(msg.sender, 'sender');\n        emit LogAddr(ens.owner(keccak256(rootNode, subnode)), 'owner');\n        emit LogBool(currentOwner == 0, 'co is 0');\n\n        address currentOwner = ens.owner(keccak256(rootNode, subnode));\n        require(currentOwner == 0 || currentOwner == msg.sender);\n        _;\n    }\n\n    /**\n     * Constructor.\n     * @param ensAddr The address of the ENS registry.\n     * @param node The node that this registrar administers.\n     */\n    function FIFSRegistrar(ENS ensAddr, bytes32 node) public {\n        ens = ensAddr;\n        rootNode = node;\n    }\n\n    /**\n     * Register a name, or change the owner of an existing registration.\n     * @param subnode The hash of the label to register.\n     * @param owner The address of the new owner.\n     */\n    function register(bytes32 subnode, address owner) public only_owner(subnode) {\n        ens.setSubnodeOwner(rootNode, subnode, owner);\n    }\n}\n",
  "sourcePath": "/Users/significance/Code/df/subdomain-registrar/contracts/FIFSRegistrar.sol",
  "compiler": {
    "name": "solc",
    "version": "0.4.24+commit.e67f0147.Emscripten.clang"
  },
  "schemaVersion": "2.0.1",
  "updatedAt": "2019-04-30T09:24:46.222Z"
}