{
  "contractName": "KeyValueTree",
  "abi": [
    {
      "constant": true,
      "inputs": [],
      "name": "rootNodeId",
      "outputs": [
        {
          "name": "",
          "type": "bytes32"
        }
      ],
      "payable": false,
      "stateMutability": "view",
      "type": "function"
    },
    {
      "constant": true,
      "inputs": [],
      "name": "sharedNodeId",
      "outputs": [
        {
          "name": "",
          "type": "bytes32"
        }
      ],
      "payable": false,
      "stateMutability": "view",
      "type": "function"
    },
    {
      "constant": true,
      "inputs": [],
      "name": "owner",
      "outputs": [
        {
          "name": "",
          "type": "address"
        }
      ],
      "payable": false,
      "stateMutability": "view",
      "type": "function"
    },
    {
      "inputs": [
        {
          "name": "_owner",
          "type": "address"
        }
      ],
      "payable": false,
      "stateMutability": "nonpayable",
      "type": "constructor"
    },
    {
      "payable": true,
      "stateMutability": "payable",
      "type": "fallback"
    },
    {
      "constant": false,
      "inputs": [
        {
          "name": "_newOwner",
          "type": "address"
        }
      ],
      "name": "changeOwner",
      "outputs": [],
      "payable": false,
      "stateMutability": "nonpayable",
      "type": "function"
    },
    {
      "constant": true,
      "inputs": [],
      "name": "getRootId",
      "outputs": [
        {
          "name": "",
          "type": "bytes32"
        }
      ],
      "payable": false,
      "stateMutability": "view",
      "type": "function"
    },
    {
      "constant": true,
      "inputs": [],
      "name": "getSharedId",
      "outputs": [
        {
          "name": "",
          "type": "bytes32"
        }
      ],
      "payable": false,
      "stateMutability": "view",
      "type": "function"
    },
    {
      "constant": true,
      "inputs": [
        {
          "name": "nodeId",
          "type": "bytes32"
        }
      ],
      "name": "isNode",
      "outputs": [
        {
          "name": "",
          "type": "bool"
        }
      ],
      "payable": false,
      "stateMutability": "view",
      "type": "function"
    },
    {
      "constant": true,
      "inputs": [
        {
          "name": "nodeId",
          "type": "bytes32"
        }
      ],
      "name": "getChildCount",
      "outputs": [
        {
          "name": "childCount",
          "type": "uint256"
        }
      ],
      "payable": false,
      "stateMutability": "view",
      "type": "function"
    },
    {
      "constant": true,
      "inputs": [
        {
          "name": "nodeId",
          "type": "bytes32"
        },
        {
          "name": "index",
          "type": "uint256"
        }
      ],
      "name": "getChildAt",
      "outputs": [
        {
          "name": "childId",
          "type": "bytes32"
        }
      ],
      "payable": false,
      "stateMutability": "view",
      "type": "function"
    },
    {
      "constant": true,
      "inputs": [
        {
          "name": "nodeId",
          "type": "bytes32"
        }
      ],
      "name": "getChildren",
      "outputs": [
        {
          "name": "childrenodeId",
          "type": "bytes32[]"
        }
      ],
      "payable": false,
      "stateMutability": "view",
      "type": "function"
    },
    {
      "constant": false,
      "inputs": [
        {
          "name": "nodeId",
          "type": "bytes32"
        },
        {
          "name": "index",
          "type": "uint256"
        }
      ],
      "name": "removeChildAt",
      "outputs": [
        {
          "name": "",
          "type": "bool"
        }
      ],
      "payable": false,
      "stateMutability": "nonpayable",
      "type": "function"
    },
    {
      "constant": false,
      "inputs": [
        {
          "name": "nodeId",
          "type": "bytes32"
        },
        {
          "name": "addr",
          "type": "address"
        },
        {
          "name": "rights",
          "type": "int256"
        }
      ],
      "name": "setNodeAccess",
      "outputs": [
        {
          "name": "",
          "type": "int256"
        }
      ],
      "payable": false,
      "stateMutability": "nonpayable",
      "type": "function"
    },
    {
      "constant": true,
      "inputs": [
        {
          "name": "nodeId",
          "type": "bytes32"
        },
        {
          "name": "addr",
          "type": "address"
        }
      ],
      "name": "canRead",
      "outputs": [
        {
          "name": "",
          "type": "bool"
        }
      ],
      "payable": false,
      "stateMutability": "view",
      "type": "function"
    },
    {
      "constant": true,
      "inputs": [
        {
          "name": "nodeId",
          "type": "bytes32"
        },
        {
          "name": "addr",
          "type": "address"
        }
      ],
      "name": "canWrite",
      "outputs": [
        {
          "name": "",
          "type": "bool"
        }
      ],
      "payable": false,
      "stateMutability": "view",
      "type": "function"
    },
    {
      "constant": true,
      "inputs": [
        {
          "name": "nodeId",
          "type": "bytes32"
        },
        {
          "name": "addr",
          "type": "address"
        }
      ],
      "name": "canOverwrite",
      "outputs": [
        {
          "name": "",
          "type": "bool"
        }
      ],
      "payable": false,
      "stateMutability": "view",
      "type": "function"
    },
    {
      "constant": false,
      "inputs": [
        {
          "name": "nodeId",
          "type": "bytes32"
        }
      ],
      "name": "deleteNode",
      "outputs": [
        {
          "name": "",
          "type": "bool"
        }
      ],
      "payable": false,
      "stateMutability": "nonpayable",
      "type": "function"
    },
    {
      "constant": false,
      "inputs": [
        {
          "name": "parentNodeId",
          "type": "bytes32"
        },
        {
          "name": "subNodeId",
          "type": "bytes32"
        }
      ],
      "name": "addChildNode",
      "outputs": [
        {
          "name": "",
          "type": "bytes32"
        }
      ],
      "payable": false,
      "stateMutability": "nonpayable",
      "type": "function"
    },
    {
      "constant": false,
      "inputs": [
        {
          "name": "nodeId",
          "type": "bytes32"
        },
        {
          "name": "key",
          "type": "bytes32"
        },
        {
          "name": "value",
          "type": "bytes32"
        }
      ],
      "name": "setKeyValue",
      "outputs": [
        {
          "name": "",
          "type": "bool"
        }
      ],
      "payable": false,
      "stateMutability": "nonpayable",
      "type": "function"
    },
    {
      "constant": false,
      "inputs": [
        {
          "name": "nodeId",
          "type": "bytes32"
        },
        {
          "name": "key",
          "type": "bytes32"
        },
        {
          "name": "value",
          "type": "bytes32"
        }
      ],
      "name": "writeKeyValue",
      "outputs": [
        {
          "name": "",
          "type": "bool"
        }
      ],
      "payable": false,
      "stateMutability": "nonpayable",
      "type": "function"
    },
    {
      "constant": true,
      "inputs": [
        {
          "name": "nodeId",
          "type": "bytes32"
        }
      ],
      "name": "getKeysValues",
      "outputs": [
        {
          "name": "keys",
          "type": "bytes32[]"
        },
        {
          "name": "values",
          "type": "bytes32[]"
        }
      ],
      "payable": false,
      "stateMutability": "view",
      "type": "function"
    },
    {
      "constant": true,
      "inputs": [
        {
          "name": "nodeId",
          "type": "bytes32"
        },
        {
          "name": "index",
          "type": "uint256"
        }
      ],
      "name": "getKeyValueAt",
      "outputs": [
        {
          "name": "key",
          "type": "bytes32"
        },
        {
          "name": "value",
          "type": "bytes32"
        }
      ],
      "payable": false,
      "stateMutability": "view",
      "type": "function"
    },
    {
      "constant": true,
      "inputs": [
        {
          "name": "nodeId",
          "type": "bytes32"
        }
      ],
      "name": "getKeys",
      "outputs": [
        {
          "name": "",
          "type": "bytes32[]"
        }
      ],
      "payable": false,
      "stateMutability": "view",
      "type": "function"
    },
    {
      "constant": true,
      "inputs": [
        {
          "name": "nodeId",
          "type": "bytes32"
        }
      ],
      "name": "getKeysCount",
      "outputs": [
        {
          "name": "",
          "type": "uint256"
        }
      ],
      "payable": false,
      "stateMutability": "view",
      "type": "function"
    },
    {
      "constant": true,
      "inputs": [
        {
          "name": "nodeId",
          "type": "bytes32"
        },
        {
          "name": "index",
          "type": "uint256"
        }
      ],
      "name": "getKeyAt",
      "outputs": [
        {
          "name": "",
          "type": "bytes32"
        }
      ],
      "payable": false,
      "stateMutability": "view",
      "type": "function"
    },
    {
      "constant": true,
      "inputs": [
        {
          "name": "nodeId",
          "type": "bytes32"
        },
        {
          "name": "key",
          "type": "bytes32"
        }
      ],
      "name": "getValue",
      "outputs": [
        {
          "name": "",
          "type": "bytes32"
        }
      ],
      "payable": false,
      "stateMutability": "view",
      "type": "function"
    },
    {
      "constant": true,
      "inputs": [
        {
          "name": "nodeId",
          "type": "bytes32"
        }
      ],
      "name": "getValuesCount",
      "outputs": [
        {
          "name": "",
          "type": "uint256"
        }
      ],
      "payable": false,
      "stateMutability": "view",
      "type": "function"
    },
    {
      "constant": true,
      "inputs": [
        {
          "name": "nodeId",
          "type": "bytes32"
        },
        {
          "name": "index",
          "type": "uint256"
        }
      ],
      "name": "getValueAt",
      "outputs": [
        {
          "name": "",
          "type": "bytes32"
        }
      ],
      "payable": false,
      "stateMutability": "view",
      "type": "function"
    },
    {
      "constant": false,
      "inputs": [
        {
          "name": "nodeId",
          "type": "bytes32"
        },
        {
          "name": "index",
          "type": "uint256"
        },
        {
          "name": "key",
          "type": "bytes32"
        },
        {
          "name": "newValue",
          "type": "bytes32"
        }
      ],
      "name": "overwriteKey",
      "outputs": [
        {
          "name": "",
          "type": "bool"
        }
      ],
      "payable": false,
      "stateMutability": "nonpayable",
      "type": "function"
    },
    {
      "constant": false,
      "inputs": [
        {
          "name": "nodeId",
          "type": "bytes32"
        },
        {
          "name": "index",
          "type": "uint256"
        }
      ],
      "name": "removeKeyAt",
      "outputs": [
        {
          "name": "",
          "type": "bool"
        }
      ],
      "payable": false,
      "stateMutability": "nonpayable",
      "type": "function"
    },
    {
      "constant": true,
      "inputs": [
        {
          "name": "nodeId",
          "type": "bytes32"
        }
      ],
      "name": "getNodesIndex",
      "outputs": [
        {
          "name": "",
          "type": "uint256"
        }
      ],
      "payable": false,
      "stateMutability": "view",
      "type": "function"
    },
    {
      "constant": true,
      "inputs": [
        {
          "name": "nodeId",
          "type": "bytes32"
        },
        {
          "name": "key",
          "type": "bytes32"
        }
      ],
      "name": "getNodeValuesForAKey",
      "outputs": [
        {
          "name": "",
          "type": "bytes32[]"
        }
      ],
      "payable": false,
      "stateMutability": "view",
      "type": "function"
    },
    {
      "constant": true,
      "inputs": [],
      "name": "getNodes",
      "outputs": [
        {
          "name": "",
          "type": "bytes32[]"
        }
      ],
      "payable": false,
      "stateMutability": "view",
      "type": "function"
    },
    {
      "constant": true,
      "inputs": [],
      "name": "getNodeCount",
      "outputs": [
        {
          "name": "",
          "type": "uint256"
        }
      ],
      "payable": false,
      "stateMutability": "view",
      "type": "function"
    },
    {
      "constant": true,
      "inputs": [
        {
          "name": "idx",
          "type": "uint256"
        }
      ],
      "name": "getNodeAt",
      "outputs": [
        {
          "name": "",
          "type": "bytes32"
        }
      ],
      "payable": false,
      "stateMutability": "view",
      "type": "function"
    },
    {
      "constant": false,
      "inputs": [],
      "name": "getFunds",
      "outputs": [],
      "payable": false,
      "stateMutability": "nonpayable",
      "type": "function"
    }
  ],
  "bytecode": "0x60806040523480156200001157600080fd5b5060405160208062002022833981018060405260208110156200003357600080fd5b505160008054600160a060020a031916600160a060020a03831617815562000085907fc7f5bbf5fe95923f0691c94f666ac3dfed12456cd33bd018e7620c3d93edd5a6640100000000620000c9810204565b6001819055620000bf907f23e642b7242469a5e3184a6566020c815689149967703a98c0affc14b9ca9b28640100000000620001e7810204565b6002555062000639565b6000620000df836401000000006200032c810204565b158015620000ed5750600083115b15620000f857600080fd5b6200010c826401000000006200032c810204565b156200011757600080fd5b50806200012362000595565b6040810184905260018152600084111562000153576200014d848364010000000062000341810204565b60208201525b6000828152600560208181526040928390208451815460ff191690151517815584820151600182015592840151600284015560608401518051859493620001a093908501920190620005c9565b5060808201518051620001be916006840191602090910190620005c9565b5060a08201518051620001dc916007840191602090910190620005c9565b505050505b92915050565b600082620001fe816401000000006200032c810204565b15156200020a57506001545b6200021f813364010000000062000367810204565b15156200022b57506002545b6200023f836401000000006200032c810204565b1562000276576200025a833364010000000062000367810204565b15156200026c575060009050620001e1565b82915050620001e1565b6200028b813364010000000062000452810204565b15156200029d575060009050620001e1565b6000620002b48285640100000000620000c9810204565b6003805460018101918290557fc2575a0e9e593c00f959f8c92f12db2869c3395a3b0502d05e2516446f71f85b0186905560008681526004602052604081209190915554909150600160a060020a03163314620003245762000322813360026401000000006200051c810204565b505b949350505050565b60009081526005602052604090205460ff1690565b600091825260056020908152604083206007018054600181018255908452922082015590565b60006200037d836401000000006200032c810204565b15156200038d57506000620001e1565b600160a060020a038216331415620003a857506001620001e1565b6000838152600560209081526040808320600160a060020a038616845260038101909252909120546000191415620003e5576000915050620001e1565b6000808052600380830160205260409091205414156200040a576000915050620001e1565b600080805260038201602052604081205413156200042d576001915050620001e1565b600160a060020a03831660009081526003909101602052604081205413905092915050565b600062000468836401000000006200032c810204565b15156200047857506000620001e1565b600160a060020a0382163314156200049357506001620001e1565b6000838152600560209081526040808320600160a060020a038616845260038101909252909120546000191415620004d0576000915050620001e1565b600080805260038201602052604090205460011215620004f5576001915050620001e1565b600160a060020a038316600090815260039091016020526040902054600112905092915050565b60008054600160a060020a03848116911614156200053d575060026200058e565b62000552843364010000000062000452810204565b15156200056357506000196200058e565b506000838152600560209081526040808320600160a060020a03861684526003019091529020819055805b9392505050565b6040805160c0810182526000808252602082018190529181019190915260608082018190526080820181905260a082015290565b82805482825590600052602060002090810192821562000607579160200282015b8281111562000607578251825591602001919060010190620005ea565b506200061592915062000619565b5090565b6200063691905b8082111562000615576000815560010162000620565b90565b6119d980620006496000396000f3fe6080604052600436106101b55763ffffffff7c01000000000000000000000000000000000000000000000000000000006000350416628614ff81146101b75780631a8283e4146101f957806322c1064a146102795780632947ef38146102c357806339bf397e146102d85780634d9b3735146102ed5780635ba5342a1461030257806362ecbd351461031757806362fbdb7614610350578063640a7f881461036557806372965b301461038f578063790c38b0146103bf5780637b01127c146103ef578063821f32ce1461041f5780638da5cb5b146104495780638f1ac1751461047a57806390d1040e146104b3578063a09e3d0a146104f2578063a24fa7911461051c578063a60efc6514610546578063a6f9dae114610570578063ae4c6161146105a3578063b1cfda88146105cd578063b7471dd014610603578063ba75d80614610633578063bfbd3c1f1461065d578063cd98de8514610672578063ceef5f02146106ab578063cf25611e146106f4578063d37684ff14610724578063d4c602f11461074e578063e29581aa1461077e578063f12a796b14610793578063f7fed313146107bd578063fa80164414610880575b005b3480156101c357600080fd5b506101e7600480360360408110156101da57600080fd5b50803590602001356108bc565b60408051918252519081900360200190f35b34801561020557600080fd5b506102296004803603604081101561021c57600080fd5b50803590602001356108ed565b60408051602080825283518183015283519192839290830191858101910280838360005b8381101561026557818101518382015260200161024d565b505050509050019250505060405180910390f35b34801561028557600080fd5b506102af6004803603606081101561029c57600080fd5b5080359060208101359060400135610970565b604080519115158252519081900360200190f35b3480156102cf57600080fd5b506101e7610a4d565b3480156102e457600080fd5b506101e7610a54565b3480156102f957600080fd5b506101b5610a73565b34801561030e57600080fd5b506101e7610ac8565b34801561032357600080fd5b506102af6004803603604081101561033a57600080fd5b5080359060200135600160a060020a0316610ace565b34801561035c57600080fd5b506101e7610b83565b34801561037157600080fd5b506101e76004803603602081101561038857600080fd5b5035610b89565b34801561039b57600080fd5b506101e7600480360360408110156103b257600080fd5b5080359060200135610bbc565b3480156103cb57600080fd5b506101e7600480360360408110156103e257600080fd5b5080359060200135610bf3565b3480156103fb57600080fd5b506101e76004803603604081101561041257600080fd5b5080359060200135610ce2565b34801561042b57600080fd5b506101e76004803603602081101561044257600080fd5b5035610d1e565b34801561045557600080fd5b5061045e610d30565b60408051600160a060020a039092168252519081900360200190f35b34801561048657600080fd5b506102af6004803603604081101561049d57600080fd5b5080359060200135600160a060020a0316610d3f565b3480156104bf57600080fd5b506101e7600480360360608110156104d657600080fd5b50803590600160a060020a036020820135169060400135610df6565b3480156104fe57600080fd5b506101e76004803603602081101561051557600080fd5b5035610e5d565b34801561052857600080fd5b506102af6004803603602081101561053f57600080fd5b5035610e72565b34801561055257600080fd5b506101e76004803603602081101561056957600080fd5b5035610e87565b34801561057c57600080fd5b506101b56004803603602081101561059357600080fd5b5035600160a060020a0316610eb8565b3480156105af57600080fd5b50610229600480360360208110156105c657600080fd5b5035610efe565b3480156105d957600080fd5b506102af600480360360608110156105f057600080fd5b5080359060208101359060400135610f7c565b34801561060f57600080fd5b506101e76004803603604081101561062657600080fd5b5080359060200135610fc1565b34801561063f57600080fd5b506101e76004803603602081101561065657600080fd5b5035610ff9565b34801561066957600080fd5b506101e7611031565b34801561067e57600080fd5b506102af6004803603604081101561069557600080fd5b5080359060200135600160a060020a0316611037565b3480156106b757600080fd5b506106db600480360360408110156106ce57600080fd5b508035906020013561110d565b6040805192835260208301919091528051918290030190f35b34801561070057600080fd5b506102af6004803603604081101561071757600080fd5b508035906020013561118e565b34801561073057600080fd5b506102296004803603602081101561074757600080fd5b50356112e2565b34801561075a57600080fd5b506102af6004803603604081101561077157600080fd5b5080359060200135611347565b34801561078a57600080fd5b5061022961148f565b34801561079f57600080fd5b506102af600480360360208110156107b657600080fd5b50356114ff565b3480156107c957600080fd5b506107e7600480360360208110156107e057600080fd5b50356115f5565b604051808060200180602001838103835285818151815260200191508051906020019060200280838360005b8381101561082b578181015183820152602001610813565b50505050905001838103825284818151815260200191508051906020019060200280838360005b8381101561086a578181015183820152602001610852565b5050505090500194505050505060405180910390f35b34801561088c57600080fd5b506102af600480360360808110156108a357600080fd5b50803590602081013590604081013590606001356116e0565b60008281526005602052604081206007018054839081106108d957fe5b906000526020600020015490505b92915050565b600054606090600160a060020a0316331461090757600080fd5b60008281526006602090815260408083208684528252918290208054835181840281018401909452808452909183018282801561096357602002820191906000526020600020905b81548152602001906001019080831161094f575b5050505050905092915050565b600061097c8433610d3f565b151561098a57506000610a46565b600084815260056020908152604080832086845260048101909252909120541515610a19576005810180546001818101835560009283526020808420909201879055600680850180548084018255908552838520018790558784526004909401825260408084208790559382528383208884528252928220805480850182559083529120018390559050610a46565b50506000828152600660209081526040808320868452825282208054600181018255908352908220018290555b9392505050565b6001545b90565b60008054600160a060020a03163314610a6c57600080fd5b5060035490565b600054600160a060020a03163314610a8a57600080fd5b60008054604051600160a060020a0390911691303180156108fc02929091818181858888f19350505050158015610ac5573d6000803e3d6000fd5b50565b60015481565b6000610ad983610e72565b1515610ae7575060006108e7565b600160a060020a038216331415610b00575060016108e7565b6000838152600560209081526040808320600160a060020a038616845260038101909252909120546000191415610b3b5760009150506108e7565b600080805260038281016020526040909120541315610b5e5760019150506108e7565b600160a060020a03831660009081526003918201602052604090205413905092915050565b60025481565b6000610b958233611037565b1515610ba357506000610bb7565b506000818152600560205260409020600601545b919050565b6000610bc88333611037565b1515610bd6575060006108e7565b60008381526005602052604090206006018054839081106108d957fe5b600082610bff81610e72565b1515610c0a57506001545b610c148133611037565b1515610c1f57506002545b610c2883610e72565b15610c5057610c378333611037565b1515610c475750600090506108e7565b829150506108e7565b610c5a8133610d3f565b1515610c6a5750600090506108e7565b6000610c7682856117d5565b6003805460018101918290557fc2575a0e9e593c00f959f8c92f12db2869c3395a3b0502d05e2516446f71f85b0186905560008681526004602052604081209190915554909150600160a060020a03163314610cda57610cd881336002610df6565b505b949350505050565b6000610cee8333611037565b1515610cfc575060006108e7565b5060009182526005602090815260408084209284526004909201905290205490565b60009081526004602052604090205490565b600054600160a060020a031681565b6000610d4a83610e72565b1515610d58575060006108e7565b600160a060020a038216331415610d71575060016108e7565b6000838152600560209081526040808320600160a060020a038616845260038101909252909120546000191415610dac5760009150506108e7565b600080805260038201602052604090205460011215610dcf5760019150506108e7565b600160a060020a038316600090815260039091016020526040902054600112905092915050565b60008054600160a060020a0384811691161415610e1557506002610a46565b610e1f8433610d3f565b1515610e2e5750600019610a46565b506000928352600560209081526040808520600160a060020a0394909416855260039093019052912081905590565b60009081526005602052604090206007015490565b60009081526005602052604090205460ff1690565b6000610e938233611037565b1515610ea157506000610bb7565b506000908152600560208190526040909120015490565b600054600160a060020a03163314610ecf57600080fd5b6000805473ffffffffffffffffffffffffffffffffffffffff1916600160a060020a0392909216919091179055565b606080610f0b8333611037565b1515610f18579050610bb7565b60008381526005602081815260409283902090910180548351818402810184019094528084529091830182828015610f6f57602002820191906000526020600020905b815481526020019060010190808311610f5b575b5050505050915050919050565b6000610f8784610e72565b1515610fb657600254600054600160a060020a0316331415610fa857506001545b610fb28186610bf3565b9450505b610cda848484610970565b6000610fcd8333611037565b1515610fdb575060006108e7565b6000838152600560208190526040909120018054839081106108d957fe5b60008054600160a060020a0316331461101157600080fd5b600380548390811061101f57fe5b90600052602060002001549050919050565b60025490565b600061104283610e72565b1515611050575060006108e7565b600160a060020a038216331415611069575060016108e7565b6000838152600560209081526040808320600160a060020a0386168452600381019092529091205460001914156110a45760009150506108e7565b6000808052600380830160205260409091205414156110c75760009150506108e7565b600080805260038201602052604081205413156110e85760019150506108e7565b600160a060020a03831660009081526003909101602052604081205413905092915050565b60008061111a8433611037565b151561112b57506000905080611187565b60008481526005602081905260409091200180548490811061114957fe5b9060005260206000200154600560008681526020019081526020016000206006018481548110151561117757fe5b9060005260206000200154915091505b9250929050565b600061119a8333610d3f565b15156111a8575060006108e7565b600083815260056020819052604082209081018054919291859081106111ca57fe5b60009182526020909120015490508015156111e457600080fd5b6000818152600483016020526040812055600582018054600019810190811061120957fe5b9060005260206000200154826005018581548110151561122557fe5b600091825260209091200155600582018054600019810190811061124557fe5b6000918252602082200155600582018054906112659060001983016118eb565b50600682018054600019810190811061127a57fe5b9060005260206000200154826006018581548110151561129657fe5b60009182526020909120015560068201805460001981019081106112b657fe5b6000918252602082200155600682018054906112d69060001983016118eb565b50600195945050505050565b60008181526005602090815260409182902060070180548351818402810184019094528084526060939283018282801561133b57602002820191906000526020600020905b815481526020019060010190808311611327575b50505050509050919050565b60006113538333610d3f565b1515611361575060006108e7565b600083815260056020526040902060078101805461139591908590811061138457fe5b906000526020600020015433610d3f565b15156113a55760009150506108e7565b6007810180546000198101916000916005918391859081106113c357fe5b9060005260206000200154815260200190815260200160002060010154905082600701828154811015156113f357fe5b9060005260206000200154836007018681548110151561140f57fe5b6000918252602090912001556007830180548390811061142b57fe5b60009182526020822001556007830180549061144b9060001983016118eb565b508060056000856007018581548110151561146257fe5b90600052602060002001548152602001908152602001600020600101819055506001935050505092915050565b600054606090600160a060020a031633146114a957600080fd5b60038054806020026020016040519081016040528092919081815260200182805480156114f557602002820191906000526020600020905b8154815260200190600101908083116114e1575b5050505050905090565b600061150b8233610d3f565b151561151957506000610bb7565b60008281526005602052604090206002810154600182015461153b9190611347565b156115ec5760008381526004602052604090205480156115ea576000848152600560209081526040808320805460ff19169055600490915281205560038054600019810190811061158857fe5b90600052602060002001546003828154811015156115a257fe5b6000918252602090912001556003805460001981019081106115c057fe5b600091825260208220015560038054906115de9060001983016118eb565b50600192505050610bb7565b505b50600092915050565b60608060606116048433611037565b15156116145791508190506116db565b6000848152600560208181526040928390209091018054835181840281018401909452808452909183018282801561166b57602002820191906000526020600020905b815481526020019060010190808311611657575b50505050509250600560008581526020019081526020016000206006018054806020026020016040519081016040528092919081815260200182805480156116d257602002820191906000526020600020905b8154815260200190600101908083116116be575b50505050509150505b915091565b60006116ec8533610ace565b15156116fa57506000610cda565b600085815260056020526040902060068101548510156117c9576000816005018681548110151561172757fe5b600091825260208083209091015480835260048501909152604082209190915560058301805491925086918890811061175c57fe5b906000526020600020018190555083826006018781548110151561177c57fe5b600091825260208083209091019290925586815260049093018152604080842086905560068252808420898552825283208054600181810183559185529190932001849055509050610cda565b50600095945050505050565b60006117e083610e72565b1580156117ed5750600083115b156117f757600080fd5b61180082610e72565b1561180a57600080fd5b5080611814611914565b604081018490526001815260008411156118385761183284836118c5565b60208201525b6000828152600560208181526040928390208451815460ff19169015151781558482015160018201559284015160028401556060840151805185949361188393908501920190611948565b506080820151805161189f916006840191602090910190611948565b5060a082015180516118bb916007840191602090910190611948565b5050505092915050565b600091825260056020908152604083206007018054600181018255908452922082015590565b81548183558181111561190f5760008381526020902061190f918101908301611993565b505050565b6040805160c0810182526000808252602082018190529181019190915260608082018190526080820181905260a082015290565b828054828255906000526020600020908101928215611983579160200282015b82811115611983578251825591602001919060010190611968565b5061198f929150611993565b5090565b610a5191905b8082111561198f576000815560010161199956fea165627a7a72305820c82b20f98f5e30cdceed393119df2667dee3944ae77c67c85eca96a529c649190029",
  "source": "/* This Source Code Form is subject to the terms of the Mozilla Public\n * License, v. 2.0. If a copy of the MPL was not distributed with this\n * file, You can obtain one at http://mozilla.org/MPL/2.0/.\n *\n * This code has not been reviewed.\n * Do not use or deploy this code before reviewing it personally first.\n */\n\n/*\n  so how we tackle access rights? \n  upon creation root could be pupulated with common folders, but this was removed to reduce gas \n*/\n/*\n      privatenodeId      = addFolder(rootNodeId, 0x69ebce02fbffacce50622356b97cc93a78f17feb5bf8e8ccacbdb7032e3162dc); // none can r/w\n      publicnodeId       = addFolder(rootNodeId, 0x7e00625d1d39ffe13a119d9085848880ad5ccd078e38677f3a705653326d44ed); \n      unrestrainednodeId = addFolder(rootNodeId, 0xd0e98c61c165756dc6a3294835afbb596b332b2a27061c997163e623939c6cc0); \n      \n      setNodeAccess(publicnodeId, address(0x0), 1); // everyone can read, but not write\n      setNodeAccess(sharedNodeId, address(0x0), 3); // unknown can add, but not read \n      setNodeAccess(unrestrainednodeId, address(0x0), 2); // all can read all can write\n*/\n\n// DONE: prepare events, to enable them replace all //! with \"\" \n// TODO: method to move key/value from nodeId to new nodeId \n// TODO: add nodeId from other kvt, if its possible to do cross-contract node sharing ...  else write additional contract to hold shared data \n//\n\n pragma solidity ^0.5.0;\n\ncontract KeyValueTree {\n    address payable public owner;\n    modifier onlyOwner() {\n        require(msg.sender == owner);\n        _;\n    }\n    function changeOwner(address payable _newOwner) public onlyOwner { owner = _newOwner; }\n    \n    // should these be public, or private? and accessed through methods that also check accessRights ? \n    bytes32 public rootNodeId; // root of tree\n    bytes32 public sharedNodeId; // incoming node id\n    \n    function getRootId() public view returns (bytes32) { return rootNodeId; }\n    function getSharedId() public view returns (bytes32) { return sharedNodeId; }    \n\n    bytes32[] nodes; // all folder roots\n    mapping(bytes32 => uint256) nodesIndex; // map of folder to index (starts with 1, not 0!!)\n    \n    //mapping(bytes32 => bytes32) internal folderNodes; // map of folder to nodeId\n    //mapping(bytes32 => bytes32) internal nodeIdToFolder; // nodeIds to protocol \n    \n    mapping(bytes32 => Node) internal Nodes; // nodeId to node\n    mapping(bytes32 => mapping(bytes32 => bytes32[])) internal keyNodeIdValues; // feeds by sender by folder\n    \n    // AccessRights\n    // contains 0x0 = 1, everyone can read/write\n    // contains 0x0 = 1, everyone can read/write\n    // contains 0x0 = 0, none onlyOwner\n    // contains address = -1, address is forbiden to \n    // contains address =  0, address is forbiden to \n    // contains address =  1, address can read\n    // contains address =  2, address can read/write\n    // contains address =  3, address can write but can not read\n    // contains address =  4, address can overwrite existing address feed \n    struct Node {\n        bool      isNode;\n        uint      index;\n        bytes32   parent;\n        \n        // consider putting protocol info in a node \n        mapping(address => int) canAccess;\n        mapping(bytes32 => bytes32) valuesMap;\n        bytes32[] keys;\n        bytes32[] values;\n        \n        bytes32[] children;  // child nodes\n    }\n    \n\n   //!event NodeAdded(bytes32);\n   //!event NodeRemovedChild(uint256);\n   //!event NodeAddChild(bytes32);\n   //!event NodeAccessChange(bytes32,address,int);\n   //!event NodeDelete(bytes32 nodeId, bytes32 folder);\n   //!event AddFolder(bytes32 nodeId, bytes32 folder);\n   //!event KeyValueSet(bytes32 nodeId, bytes32 key, bytes32 value);\n   //!event KeyValueSetFolder(bytes32 nodeId, bytes32 folder);\n   //!event OverwriteKeyValue(bytes32 nodeId, uint256 index, bytes32 key, bytes32 value);\n   //!event RemoveKeyValue(bytes32 nodeId, uint256 index, bytes32 key, bytes32 value);\n    \n    function isNode(bytes32 nodeId) public view returns(bool)  {\n        return Nodes[nodeId].isNode;\n    }\n    function getChildCount(bytes32 nodeId) public view returns(uint childCount) {\n        return Nodes[nodeId].children.length;\n    }\n    function getChildAt(bytes32 nodeId, uint index) public view returns(bytes32 childId) {\n        return Nodes[nodeId].children[index];\n    }\n    function getChildren(bytes32 nodeId) public view returns(bytes32[] memory childrenodeId) {\n        return Nodes[nodeId].children;\n    }\n    function removeChildAt(bytes32 nodeId, uint256 index) public returns (bool) {\n         // removes children node from nodeId, not best way as it does reordering \n         if(!canWrite(nodeId, msg.sender)) return false;  // can write to node that is supposed to be deleted?\n\n         Node storage node = Nodes[nodeId];\n         \n         if(!canWrite(node.children[index], msg.sender)) return false; // can write to node that is supposed to be deleted?\n         \n         uint last = node.children.length-1; // last child in the list\n         uint idx = Nodes[node.children[last]].index;\n         \n         node.children[index] = node.children[last];\n         delete node.children[last];\n         node.children.length--;\n         \n         Nodes[node.children[last]].index = idx; // swap index\n         \n         //!emit NodeRemovedChild(index);\n         return true;\n    }    \n    function addNode(bytes32 nodeId, bytes32 subNodeId) internal returns(bytes32 newId) {\n        if(!isNode(nodeId) && nodeId > 0) revert(); // zero is a new root node\n        \n        if(isNode(subNodeId)) revert();\n        //newId = keccak256(abi.encodePacked(nodeId, msg.sender, block.number, folder));\n        newId = subNodeId; \n\n        Node memory node;\n        node.parent = nodeId;\n        node.isNode = true;\n        \n        if(nodeId>0) {\n            node.index = addChild(nodeId,newId);\n        }\n        \n        Nodes[newId] = node;\n        //!emit NodeAdded(newId);\n        return newId;\n    }\n    function addChild(bytes32 nodeId, bytes32 childId) private returns(uint index) {\n        //!emit NodeAddChild(childId);\n        return Nodes[nodeId].children.push(childId) - 1;\n    }\n    \n    // constructor\n    constructor(address payable _owner) public {\n      owner = _owner;         \n      rootNodeId         = addNode(0, 0xc7f5bbf5fe95923f0691c94f666ac3dfed12456cd33bd018e7620c3d93edd5a6); // the root of all, onlyOwner r/w  c7f5bbf5fe95923f0691c94f666ac3dfed12456cd33bd018e7620c3d93edd5a6\n      sharedNodeId       = addChildNode(rootNodeId, 0x23e642b7242469a5e3184a6566020c815689149967703a98c0affc14b9ca9b28);\n      // setNodeAccess(sharedNodeId, address(0x0), 3); // unknown can add, but not read \n    }\n    \n    ///////////////////////////////////////////////////////////////////////////////////////////       \n    function setNodeAccess(bytes32 nodeId, address addr, int rights) /*onlyOwner*/ public returns (int) {\n       //if(msg.sender!=owner) return -1;\n       if(addr==owner) return 2; // owner always has r/w access, this is needed so one can not bloat mapping with owner address\n       if(!canWrite( nodeId, msg.sender)) return -1;\n\n       //!emit NodeAccessChange(nodeId,addr,rights);\n       Nodes[nodeId].canAccess[addr] = rights;\n       return rights;\n    }\n    function canRead(bytes32 nodeId, address addr) public view returns (bool) {\n         if(!isNode(nodeId)) return false;\n         if(addr==msg.sender) return true;\n         \n         Node storage n = Nodes[nodeId];\n         if(n.canAccess[addr] == -1)  return false;  //address is blacklisted \n         if(n.canAccess[address(0x0)] == 3) return false; //none can read\n         if(n.canAccess[address(0x0)] > 0)  return true;  //everyone can access\n         return n.canAccess[addr]>0;\n     }\n    function canWrite(bytes32 nodeId, address addr) public view returns (bool) {\n         if(!isNode(nodeId)) return false;\n         if(addr==msg.sender) return true;\n         \n         Node storage n = Nodes[nodeId];\n         if(n.canAccess[addr] == -1)  return false;  //address is blacklisted \n         if(n.canAccess[address(0x0)] > 1) return true; //everyone can write\n         return n.canAccess[addr]>1;\n     }\n    function canOverwrite(bytes32 nodeId, address addr) public view returns (bool) {\n         if(!isNode(nodeId)) return false;\n         if(addr==msg.sender) return true;\n         Node storage n = Nodes[nodeId];\n         \n         if(n.canAccess[addr] == -1)  return false;  //address is blacklisted \n         if(n.canAccess[address(0x0)] > 3) return true; //everyone can overwrite\n         return n.canAccess[addr] > 3; // yes you can overwrite\n     }\n    ///////////////////////////////////////////////////////////////////////////////////////////       \n    function deleteNode(bytes32 nodeId) public returns (bool) {\n        if(!canWrite(nodeId, msg.sender)) return false;\n        \n        //bytes32 folder = nodeIdToFolder[nodeId];\n        //if(folder==0x0) return false; // no mapping to folder\n\n        Node storage node = Nodes[nodeId];\n        if(removeChildAt(node.parent, node.index)) \n        {\n            uint256 index = nodesIndex[nodeId]; \n            if(index!=0)\n            {\n                Nodes[nodeId].isNode = false;\n                nodesIndex[nodeId] = 0;\n        \n                nodes[index] = nodes[nodes.length-1];\n                delete nodes[nodes.length-1];\n                nodes.length--;\n                \n                //!emit NodeDelete(nodeId, folder);\n                return true;\n            }\n        }\n        return false;\n    }     \n     \n    // problem is that subFolder is added to folderNodes mapping\n    // this means subFolder can be only one and must be unique \n    // which in turn means that we can't have same subFolder in different parent protocols\n    // add subProtocol to parentProtocol (protocolnodeId)\n    // so if if parent is bin, then add subFolder as \"/bin/subFolderName\" \n    // returns nodeId of new subFolder or 0x0 if error \n    function addChildNode(bytes32 parentNodeId, bytes32 subNodeId) public returns (bytes32) {\n        bytes32 parentId = parentNodeId;\n        if(!isNode(parentId)) // parentNode is not a node, then write to root\n           parentId = rootNodeId;\n        \n        if(!canRead(parentId, msg.sender)) // no read permission for parent\n           parentId = sharedNodeId;\n\n        if(isNode(subNodeId)) // if subProtocol exists as protocol, then fail\n        {\n            if(!canRead(subNodeId, msg.sender)) // no read permission \n               return 0x0;\n               \n            return subNodeId;\n        }\n        \n        if(!canWrite(parentId, msg.sender)) // no write permission\n           return 0x0;\n        \n        bytes32 newNodeId = addNode(parentId, subNodeId); // add child to parent\n\n        //folderNodes[subNodeId] = newNodeId; \n        nodesIndex[subNodeId] = nodes.push(subNodeId);\n        //nodeIdToFolder[newNodeId] = subNodeId; // we need mapping to folder from nodeId\n        //!emit AddFolder(newnodeId, subFolder);\n        \n        if(msg.sender!=owner)\n          setNodeAccess(newNodeId, msg.sender, 2); // give r/w access to creator of node\n           \n        return newNodeId; \n    }\n    ///////////////////////////////////////////////////////////////////////////////////////////      \n    // setKeyValue, will suceed only when no such key with value exist\n    function setKeyValue(bytes32 nodeId, bytes32 key, bytes32 value) public returns (bool) {\n         //Node memory targetNode = Nodes[nodeId];\n         \n         if(!isNode(nodeId)) {// folder does not exist in mapping to all folder\n            bytes32 makeChildIn = sharedNodeId; // everything goes to incoming\n            if(msg.sender == owner) // owner can create in root \n               makeChildIn = rootNodeId;\n              \n            nodeId = addChildNode(makeChildIn, nodeId);\n         }\n         //!emit KeyValueSetFolder(targetNode, folder);\n         return writeKeyValue(nodeId, key, value);\n    }\n    function writeKeyValue(bytes32 nodeId, bytes32 key, bytes32 value) public returns (bool) {\n         if(!canWrite(nodeId, msg.sender)) // no read permission for parent\n           return false;\n         \n         Node storage node = Nodes[nodeId];\n         \n         if(node.valuesMap[key] == 0x0) // no such value yet, could be replaced by keyNodeIdValues[key][folder].length==0\n         {\n            node.keys.push(key);\n            node.values.push(value); \n            \n            node.valuesMap[key] = value;\n            keyNodeIdValues[key][nodeId].push(value);\n            //!emit KeyValueSet(nodeId, key, value);\n            return true; \n         } \n         \n         keyNodeIdValues[key][nodeId].push(value);\n         return false;\n    }\n    ///////////////////////////////////////////////////////////////////////////////////////////       \n\n    // getKeyValues \n    function getKeysValues(bytes32 nodeId) public view returns (bytes32[] memory keys,bytes32[] memory values) {\n         bytes32[] memory ret;\n         if(!canRead(nodeId, msg.sender)) return (ret,ret);\n             \n         keys =  Nodes[nodeId].keys;  \n         values = Nodes[nodeId].values;\n         //return (keys, values);\n    }\n    // getKeyValueAt\n    function getKeyValueAt(bytes32 nodeId, uint index) public view returns (bytes32 key, bytes32 value) {\n         if(!canRead(nodeId, msg.sender)) return (0x0,0x0);\n             \n         return (Nodes[nodeId].keys[index],Nodes[nodeId].values[index]);\n    }\n    \n    ///////////////////////////////////////////////////////////////////////////////////////////\n    // getKeys \n    function getKeys(bytes32 nodeId) view public returns (bytes32[] memory) {\n         bytes32[] memory ret;\n         if(!canRead(nodeId, msg.sender)) return ret;\n\n         return Nodes[nodeId].keys;\n     }\n    // get num keys\n    function getKeysCount(bytes32 nodeId) view public returns (uint) {\n         if(!canRead(nodeId, msg.sender)) return 0;\n             \n         return Nodes[nodeId].keys.length;\n     }\n    // get key at\n    function getKeyAt(bytes32 nodeId, uint index) view public returns (bytes32) {\n         if(!canRead(nodeId, msg.sender)) return 0x0;\n             \n         return Nodes[nodeId].keys[index];\n     }\n     \n    /////////////////////////////////////////////////////////////////////////////////////////// \n    // getValues \n    function getValue(bytes32 nodeId, bytes32 key) public view returns (bytes32) {\n         if(!canRead(nodeId, msg.sender)) return 0x0;\n             \n         return Nodes[nodeId].valuesMap[key];\n    }\n    // get num values\n    function getValuesCount(bytes32 nodeId) view public returns (uint) {\n         if(!canRead(nodeId, msg.sender)) return 0;\n             \n         return Nodes[nodeId].values.length;\n     }\n    // get value at  \n    function getValueAt(bytes32 nodeId, uint index) view public returns (bytes32) {\n         if(!canRead(nodeId, msg.sender)) return 0x0;\n             \n         return Nodes[nodeId].values[index];\n     }\n    \n    ///////////////////////////////////////////////////////////////////////////////////////////\n    // overwrite in folder with new sender and new feed\n    function overwriteKey(bytes32 nodeId, uint index, bytes32 key, bytes32 newValue) public returns (bool) {\n        if(!canOverwrite(nodeId, msg.sender)) return false;\n        \n        Node storage node = Nodes[nodeId];\n        if(index<node.values.length) // no such feed yet\n        {\n            bytes32 prevKey = node.keys[index]; // where is previous\n            node.valuesMap[prevKey] = 0x0; // set it to null \n            \n            node.keys[index] = key;\n            node.values[index] = newValue; \n            node.valuesMap[key] = newValue; //\n            \n            keyNodeIdValues[key][nodeId].push(newValue);\n            \n            //!emit OverwriteKeyValue(nodeId,index,key,newValue);\n            return true;\n        }        \n        return false;\n     }\n    // remove key\n    function removeKeyAt(bytes32 nodeId, uint256 index) public returns (bool) {\n         if(!canWrite(nodeId, msg.sender)) return false; \n         \n         Node storage node = Nodes[nodeId];\n         \n         bytes32 atKey = node.keys[index];\n         //bytes32 preValue = node.values[index];\n         require(atKey!=0x0); // node has no sender at index \n         \n         node.valuesMap[atKey] = 0x0; // clear sender         \n         \n         node.keys[index] = node.keys[node.keys.length-1];\n         delete node.keys[node.keys.length-1];\n         node.keys.length--;\n         \n         node.values[index] = node.values[node.values.length-1];\n         delete node.values[node.values.length-1];\n         node.values.length--;\n         \n         //!emit RemoveKeyValue(nodeId, index, atKey, preValue);\n         return true;\n    }\n    \n    ///////////////////////////////////////////////////////////////////////////////////////////      \n    function getNodesIndex(bytes32 nodeId) view public returns (uint256) { // will get protocol node address\n         return nodesIndex[nodeId];\n     }\n\n    // ONLY OWNERS CAN ACCESS COMPLETE INFORMATION\n    ///////////////////////////////////////////////////////////////////////////////////////////      \n    // get all values ever, chronologically, never gets deleted, only added\n    function getNodeValuesForAKey(bytes32 nodeId, bytes32 key) onlyOwner view public returns (bytes32[] memory) {\n       return keyNodeIdValues[key][nodeId];\n    }\n     \n    ///////////////////////////////////////////////////////////////////////////////////////////      \n    function getNodes() onlyOwner view public returns (bytes32[] memory) { // get all folder\n     return nodes;\n    }     \n    function getNodeCount() onlyOwner view public returns (uint256) { // get num of folder\n     return nodes.length;\n    }\n    function getNodeAt(uint256 idx) onlyOwner view public returns (bytes32) { // get folder by idx\n     return nodes[idx];\n    }\n    \n    //function getNode(bytes32 nodeId) onlyOwner view public returns (bytes32) { // get folder by idx\n    //  Node storage node = Nodes[nodeId];\n    //  return nodes[idx];\n    //}\n    ///////////////////////////////////////////////////////////////////////////////////////////\n    \n    // fallback function to accept ETH into contract.\n    function () external payable { }\n    // allow owner to remove funds  \n    function getFunds() onlyOwner public {\n        owner.transfer(address(this).balance);\n    }    \n}\n\ncontract Multibox\n{\n    address payable public owner;\n    modifier onlyOwner() {\n        require(msg.sender == owner);\n        _;\n    }\n    function changeOwner(address payable _newOwner) public onlyOwner { owner = _newOwner; }\n    // addresses of roots     \n    KeyValueTree[] roots; \n    \n    //!event Initialized();\n    //!event RootCreated(KeyValueTree);\n    //!event RootAdded(KeyValueTree);\n    //!event RootFailedNoOwner(address sender, address  owner);\n    //!event RootRemoved(uint256);\n    //!event RootRevoked(uint256);\n    //!event FundsRemoved(uint256);\n    ////////////////////////////////////////////////////////////////////////////////////////////////\n    //!event AccessRequested(address, Multibox, KeyValueTree, bytes32);\n    //!event AccessRequestFail(address, Multibox, KeyValueTree, bytes32 nodeId, bool canOwnerWrite);\n    //!event AccessRequestFailNotOwner(address kvtOwner, address multiboxOwner); \n    //!event AccessGiven(address, address to);\n    //!event AccessTerminated(address, address to);\n    \n    constructor() public {\n        //version = 1;\n        owner = msg.sender;\n    }\n    \n    function init() public returns (KeyValueTree) {\n        KeyValueTree a; \n        if(roots.length==0)//Initialized\n        {\n           a = createRoot(owner);\n           //!emit Initialized(); \n        }\n        return a;\n    }\n    \n    // any one can create new root, but ownership will belong to owner of multibox, \n    // while r/w of shared node can be set to whoHasReadWriteRights\n    function createRoot(address whoHasReadWriteRights) public returns (KeyValueTree) {\n        KeyValueTree kvt = new KeyValueTree(owner);\n        if(roots.length==0)\n          kvt.setNodeAccess(kvt.getSharedId(), whoHasReadWriteRights, 3); // first root shared node can anyone write to, but can't read from\n        else \n          kvt.setNodeAccess(kvt.getSharedId(), whoHasReadWriteRights, 2); // whoHasReadWriteRights r/w \n          \n        //!emit RootCreated(kvt);  \n        return addRoot(kvt);\n    }\n    function getRoots() public view returns (KeyValueTree[] memory) {\n        return roots;\n    }\n    function getRootsCount() public view returns (uint256) {\n        return roots.length;\n    }\n    function getRootAt(uint256 index) public view returns (KeyValueTree) {\n        return roots[index];\n    }\n    // others can add KeyValueTrees (but need to set access rights by themselfs)\n    function addRoot(KeyValueTree kvt) public returns (KeyValueTree) {\n        \n        if(kvt.owner() != msg.sender) // not owner of tree? can't move then \n        {\n            //!emit RootFailedNoOwner(msg.sender, kvt.owner());\n            return KeyValueTree(0x0);\n        }\n\n        roots.push(kvt);\n        //!emit RootAdded(kvt);  \n        return kvt;\n    }\n    // owner can remove any root except 0 \n    function removeRoot(uint256 index) onlyOwner public returns (uint256) {\n        if(index==0) return 0; // fail cant NEVER remove root\n        \n        roots[index] = roots[roots.length-1];\n        delete roots[roots.length-1];\n        roots.length--;\n        //!emit RootRemoved(index);\n        return roots.length;\n    }\n    // others can remove their trees \n    function revokeRoot(uint256 index) public returns (uint256) {\n        KeyValueTree kvt = roots[index];\n         \n        if(index==0) return 0; // fail cant NEVER remove root\n        if(kvt.owner() == msg.sender) // not owner of tree? can't move then \n           return 0;\n        \n        roots[index] = roots[roots.length-1];\n        delete roots[roots.length-1];\n        roots.length--;\n        //!emit RootRevoked(index);\n        return roots.length;\n    }\n    \n    // fallback function to accept ETH into contract.\n    function () external payable {\n    }\n    // allow owner to remove funds  \n    function removeFunds() onlyOwner public {\n        //!emit FundsRemoved(address(this).balance);\n        owner.transfer(address(this).balance);\n    }\n\n    // ok so maybe this should be on Multibox level, multibox,kvt, nodeId\n    DataRequestEscrow[] accessRequests;\n    mapping(address => uint256) accessRequestsIndex; // map of folder to index (+1)\n    \n    function requestAccess(KeyValueTree kvt, bytes32 nodeId) public returns(DataRequestEscrow)\n    {\n        DataRequestEscrow dr;\n        bool canWrite = kvt.canWrite(nodeId, owner);\n        if(kvt.owner()!=this.owner())\n        {\n            //!emit AccessRequestFailNotOwner(kvt.owner(), this.owner());\n            return dr;\n        }\n        if(canWrite)\n        {\n            dr = new DataRequestEscrow(msg.sender, this, kvt, nodeId); \n            accessRequestsIndex[address(dr)] = accessRequests.push(dr);\n            //!emit AccessRequested(msg.sender, this, kvt, nodeId);\n            return dr;\n        }\n        \n        //!emit AccessRequestFail(msg.sender, this, kvt, nodeId, canWrite);\n        return dr;\n    }\n    function allowAccess(DataRequestEscrow dr) public onlyOwner \n    {\n        uint256 index = accessRequestsIndex[address(dr)];\n        if(index!=0) \n        {\n            if(dr.approve())\n            {\n                //emit AccessGiven(address(dr), dr.whoRequester());\n                accessRequestsIndex[address(dr)] = 0;\n                \n                accessRequests[index-1] = accessRequests[accessRequests.length-1];\n                delete accessRequests[accessRequests.length-1];\n                accessRequests.length--;\n                \n                dr.finalize(); // destroy contract, funds are moved to multibox.owner\n            }\n        }\n        dr.denyApproval();\n    }\n    function amountAvailable(DataRequestEscrow dr) public view returns(uint balance)\n    {\n        return address(dr).balance;\n    }\n    function getDataRequests() public view returns(DataRequestEscrow[] memory requests)\n    {\n        return accessRequests;\n    }\n}\n\n// kvt, nodeId\n// what we want: we want to assure that if addr1 gives data to addr2, addr2 will really pay \n// like escrow:\n// 1. alice request data kvt,nodeId(,key,value) from bob\n// 2. bob sets price\n// 3. alice pays price to escrow\n// 4. bob transfers knt,nodeId,key,value to alice\n// 5. bob takes the money\n\n// this could be extended to buy/sell \ncontract DataRequestEscrow {\n    Multibox multibox;\n    KeyValueTree kvt; \n    bytes32 nodeId; \n    bytes32 proofData;\n\n    address payable requester;\n    modifier onlyOwnerMultibox() {\n        require(msg.sender == multibox.owner());\n        _;\n    }\n\n    constructor(address payable whoIsRequesting, Multibox mb, KeyValueTree keyValueTree, bytes32 targetnodeId) public\n    {\n        requester = whoIsRequesting;\n        multibox = mb;\n        kvt = keyValueTree;\n        nodeId = targetnodeId;\n    }\n\n    function deposit() external payable {\n        require(msg.sender==requester);\n        require(msg.value > 0);\n    }\n    \n    function whoIsRequester() onlyOwnerMultibox public view returns(address payable)\n    {\n        return requester;\n    }\n\n    function approve() public  /*onlyOwnerMultibox external*/ returns (bool) {\n        if(kvt.isNode(nodeId))\n        {\n            int readRights = kvt.setNodeAccess(nodeId, requester, 1); // give read permission \n            if(readRights==1) {\n               return true;\n            }\n        }\n        return false;\n    }\n    function setProofOwnerShared(bytes32 proofDataLocation) onlyOwnerMultibox public returns (bool) {\n        proofData = proofDataLocation;\n    }\n    \n    function verifyOwnerShared(bytes32 h, uint8 v, bytes32 r, bytes32 s) public returns (address) {\n        bytes memory prefix = \"\\x19Ethereum Signed Message:\\n32\";\n\n        bytes32 dataHash = keccak256(abi.encodePacked(prefix, h));\n        address addr = ecrecover(dataHash, v, r, s);\n        \n        //proofOfSharing == data1Hash;\n        if(addr == kvt.owner())\n           approve();\n        else \n           abortRequest();\n    }\n    function finalize() onlyOwnerMultibox external \n    {\n        selfdestruct(multibox.owner()); // this failed, give funds back\n    }\n    function denyApproval() onlyOwnerMultibox external \n    {\n        selfdestruct(requester); // this failed, give funds back\n    }\n    function abortRequest() public  \n    {\n        require(msg.sender==requester);\n        selfdestruct(requester); // this failed, give funds back\n    }\n}\n",
  "sourcePath": "C:/Users/tex/source/repos/FairDataSociety/multibox/contracts/Multibox.sol",
  "compiler": {
    "name": "solc",
    "version": "0.5.0+commit.1d4f565a.Emscripten.clang"
  },
  "schemaVersion": "3.0.6",
  "updatedAt": "2019-05-22T09:47:16.520Z",
  "devdoc": {
    "methods": {}
  },
  "userdoc": {
    "methods": {
      "deleteNode(bytes32)": {
        "notice": "////////////////////////////////////////////////////////////////////////////////////////       "
      },
      "getKeys(bytes32)": {
        "notice": "////////////////////////////////////////////////////////////////////////////////////////"
      },
      "getKeysValues(bytes32)": {
        "notice": "////////////////////////////////////////////////////////////////////////////////////////       "
      },
      "getNodeValuesForAKey(bytes32,bytes32)": {
        "notice": "////////////////////////////////////////////////////////////////////////////////////////      "
      },
      "getNodes()": {
        "notice": "////////////////////////////////////////////////////////////////////////////////////////      "
      },
      "getNodesIndex(bytes32)": {
        "notice": "////////////////////////////////////////////////////////////////////////////////////////      "
      },
      "getValue(bytes32,bytes32)": {
        "notice": "//////////////////////////////////////////////////////////////////////////////////////// "
      },
      "overwriteKey(bytes32,uint256,bytes32,bytes32)": {
        "notice": "////////////////////////////////////////////////////////////////////////////////////////"
      },
      "setKeyValue(bytes32,bytes32,bytes32)": {
        "notice": "////////////////////////////////////////////////////////////////////////////////////////      "
      },
      "setNodeAccess(bytes32,address,int256)": {
        "notice": "////////////////////////////////////////////////////////////////////////////////////////       "
      }
    }
  }
}