{
  "contractName": "Mailbox",
  "abi": [
    {
      "constant": true,
      "inputs": [
        {
          "name": "",
          "type": "uint256"
        }
      ],
      "name": "requestSenders",
      "outputs": [
        {
          "name": "",
          "type": "bytes32"
        }
      ],
      "payable": false,
      "stateMutability": "view",
      "type": "function"
    },
    {
      "constant": true,
      "inputs": [
        {
          "name": "",
          "type": "uint256"
        }
      ],
      "name": "connectionsArray",
      "outputs": [
        {
          "name": "",
          "type": "bytes32"
        }
      ],
      "payable": false,
      "stateMutability": "view",
      "type": "function"
    },
    {
      "inputs": [],
      "payable": false,
      "stateMutability": "nonpayable",
      "type": "constructor"
    },
    {
      "constant": false,
      "inputs": [
        {
          "name": "sender",
          "type": "bytes32"
        },
        {
          "name": "feed",
          "type": "bytes32"
        }
      ],
      "name": "newRequest",
      "outputs": [
        {
          "name": "",
          "type": "bool"
        }
      ],
      "payable": false,
      "stateMutability": "nonpayable",
      "type": "function"
    },
    {
      "constant": true,
      "inputs": [],
      "name": "getRequests",
      "outputs": [
        {
          "name": "",
          "type": "bytes32[]"
        }
      ],
      "payable": false,
      "stateMutability": "view",
      "type": "function"
    },
    {
      "constant": true,
      "inputs": [
        {
          "name": "sender",
          "type": "bytes32"
        }
      ],
      "name": "getRequest",
      "outputs": [
        {
          "name": "",
          "type": "bytes32"
        }
      ],
      "payable": false,
      "stateMutability": "view",
      "type": "function"
    },
    {
      "constant": false,
      "inputs": [
        {
          "name": "sender",
          "type": "bytes32"
        }
      ],
      "name": "removeRequest",
      "outputs": [
        {
          "name": "",
          "type": "bool"
        }
      ],
      "payable": false,
      "stateMutability": "nonpayable",
      "type": "function"
    },
    {
      "constant": false,
      "inputs": [
        {
          "name": "sender",
          "type": "bytes32"
        },
        {
          "name": "feed",
          "type": "bytes32"
        }
      ],
      "name": "addConnection",
      "outputs": [
        {
          "name": "",
          "type": "bool"
        }
      ],
      "payable": false,
      "stateMutability": "nonpayable",
      "type": "function"
    },
    {
      "constant": false,
      "inputs": [
        {
          "name": "sender",
          "type": "bytes32"
        }
      ],
      "name": "removeConnection",
      "outputs": [
        {
          "name": "",
          "type": "bool"
        }
      ],
      "payable": false,
      "stateMutability": "nonpayable",
      "type": "function"
    },
    {
      "constant": true,
      "inputs": [],
      "name": "getConnections",
      "outputs": [
        {
          "name": "",
          "type": "bytes32[]"
        }
      ],
      "payable": false,
      "stateMutability": "view",
      "type": "function"
    },
    {
      "constant": true,
      "inputs": [
        {
          "name": "sender",
          "type": "bytes32"
        }
      ],
      "name": "getConnection",
      "outputs": [
        {
          "name": "",
          "type": "bytes32"
        }
      ],
      "payable": false,
      "stateMutability": "view",
      "type": "function"
    }
  ],
  "bytecode": "0x608060405234801561001057600080fd5b5033600460006101000a81548173ffffffffffffffffffffffffffffffffffffffff021916908373ffffffffffffffffffffffffffffffffffffffff1602179055506107f7806100616000396000f3006080604052600436106100a4576000357c0100000000000000000000000000000000000000000000000000000000900463ffffffff1680632d93f24b146100a95780632d945dd3146100f25780632da82e231461015e5780635aed47f3146101b55780636aff950e146102025780638813ce121461024b578063c08bdb43146102b7578063c151e11e14610300578063f3177d4c14610349578063fb1e61ca146103a0575b600080fd5b3480156100b557600080fd5b506100d860048036038101908080356000191690602001909291905050506103ed565b604051808215151515815260200191505060405180910390f35b3480156100fe57600080fd5b5061010761047c565b6040518080602001828103825283818151815260200191508051906020019060200280838360005b8381101561014a57808201518184015260208101905061012f565b505050509050019250505060405180910390f35b34801561016a57600080fd5b5061019b600480360381019080803560001916906020019092919080356000191690602001909291905050506104d8565b604051808215151515815260200191505060405180910390f35b3480156101c157600080fd5b506101e460048036038101908080356000191690602001909291905050506105c2565b60405180826000191660001916815260200191505060405180910390f35b34801561020e57600080fd5b5061022d600480360381019080803590602001909291905050506105e7565b60405180826000191660001916815260200191505060405180910390f35b34801561025757600080fd5b5061026061060a565b6040518080602001828103825283818151815260200191508051906020019060200280838360005b838110156102a3578082015181840152602081019050610288565b505050509050019250505060405180910390f35b3480156102c357600080fd5b506102e66004803603810190808035600019169060200190929190505050610666565b604051808215151515815260200191505060405180910390f35b34801561030c57600080fd5b5061032b600480360381019080803590602001909291905050506106f4565b60405180826000191660001916815260200191505060405180910390f35b34801561035557600080fd5b5061038660048036038101908080356000191690602001909291908035600019169060200190929190505050610717565b604051808215151515815260200191505060405180910390f35b3480156103ac57600080fd5b506103cf60048036038101908080356000191690602001909291905050506107a7565b60405180826000191660001916815260200191505060405180910390f35b60003373ffffffffffffffffffffffffffffffffffffffff16600460009054906101000a900473ffffffffffffffffffffffffffffffffffffffff1673ffffffffffffffffffffffffffffffffffffffff1614151561044b57600080fd5b6000600102600160008460001916600019168152602001908152602001600020816000191690555060019050919050565b606060038054806020026020016040519081016040528092919081815260200182805480156104ce57602002820191906000526020600020905b815460001916815260200190600101908083116104b6575b5050505050905090565b60003373ffffffffffffffffffffffffffffffffffffffff16600460009054906101000a900473ffffffffffffffffffffffffffffffffffffffff1673ffffffffffffffffffffffffffffffffffffffff1614151561053657600080fd5b6000600102600160008560001916600019168152602001908152602001600020546000191614156105945760038390806001815401808255809150509060018203906000526020600020016000909192909190915090600019169055505b8160016000856000191660001916815260200190815260200160002081600019169055506001905092915050565b6000600160008360001916600019168152602001908152602001600020549050919050565b6002818154811015156105f657fe5b906000526020600020016000915090505481565b6060600280548060200260200160405190810160405280929190818152602001828054801561065c57602002820191906000526020600020905b81546000191681526020019060010190808311610644575b5050505050905090565b60003373ffffffffffffffffffffffffffffffffffffffff16600460009054906101000a900473ffffffffffffffffffffffffffffffffffffffff1673ffffffffffffffffffffffffffffffffffffffff161415156106c457600080fd5b60006001026000808460001916600019168152602001908152602001600020816000191690555060019050919050565b60038181548110151561070357fe5b906000526020600020016000915090505481565b6000806001026000808560001916600019168152602001908152602001600020546000191614151561074857600080fd5b816000808560001916600019168152602001908152602001600020816000191690555060028390806001815401808255809150509060018203906000526020600020016000909192909190915090600019169055506001905092915050565b600080600083600019166000191681526020019081526020016000205490509190505600a165627a7a72305820908bb09fd280acdf91423a7a63627790023a182a2d96511c4671a0fbb7c3da550029",
  "source": "/* This Source Code Form is subject to the terms of the Mozilla Public\n * License, v. 2.0. If a copy of the MPL was not distributed with this\n * file, You can obtain one at http://mozilla.org/MPL/2.0/.\n *\n * This code has not been reviewed.\n * Do not use or deploy this code before reviewing it personally first.\n */\n\n pragma solidity ^0.4.24;\n\n contract Mailbox {\n\n     // struct Request {\n     //     bytes32 sender;\n     //     bytes32 feed;\n     // }\n\n     // Request[] requests;\n\n     // namehash => swarmhash (pending)\n     mapping(bytes32 => bytes32) internal requests;\n     mapping(bytes32 => bytes32) internal connections;\n     bytes32[] public requestSenders;\n     bytes32[] public connectionsArray;\n\n     address internal owner;\n\n     modifier only_owner() {\n         require(owner == msg.sender);\n         _;\n     }\n\n     /**\n      * Constructor.\n      */\n     constructor() public {\n         owner = msg.sender;\n     }\n\n     function newRequest(bytes32 sender, bytes32 feed) public returns (bool) {\n         require(requests[sender] == 0x0);\n         requests[sender] = feed;\n         requestSenders.push(sender);\n         return true;\n     }\n\n     function getRequests() view public returns (bytes32[]) {\n         return requestSenders;\n     }\n\n     // function getRequest(bytes32 sender) only_owner public view returns (bytes32) {\n     //     return requests[sender];\n     // }\n\n     function getRequest(bytes32 sender) public view returns (bytes32) {\n         return requests[sender];\n     }\n\n     function removeRequest(bytes32 sender) only_owner public returns (bool) {\n         requests[sender] = 0x0;\n         // not deleting array entry\n         return true;\n     }\n\n     function addConnection(bytes32 sender, bytes32 feed) only_owner public returns (bool) {\n         // if a connection exists, feed is only updated\n         if (connections[sender] == 0x0) connectionsArray.push(sender);\n         connections[sender] = feed;\n         return true;\n     }\n\n     function removeConnection(bytes32 sender) only_owner public returns (bool) {\n         connections[sender] = 0x0;\n         // we need to also delete array entry\n         return true;\n     }\n\n     function getConnections() public view returns (bytes32[]) {\n         return connectionsArray;\n     }\n\n     function getConnection(bytes32 sender) public view returns (bytes32) {\n         return connections[sender];\n     }\n\n }\n",
  "sourcePath": "/Users/significance/Code/df/fds-mailbox/contracts/Mailbox.sol",
  "compiler": {
    "name": "solc",
    "version": "0.4.24+commit.e67f0147.Emscripten.clang"
  },
  "schemaVersion": "2.0.1",
  "updatedAt": "2018-12-18T19:06:40.548Z"
}