{
  "contractName": "SubdomainRegistrar",
  "abi": [
    {
      "constant": true,
      "inputs": [],
      "name": "ens",
      "outputs": [
        {
          "name": "",
          "type": "address"
        }
      ],
      "payable": false,
      "stateMutability": "view",
      "type": "function"
    },
    {
      "constant": true,
      "inputs": [
        {
          "name": "",
          "type": "bytes32"
        }
      ],
      "name": "expiryTimes",
      "outputs": [
        {
          "name": "",
          "type": "uint256"
        }
      ],
      "payable": false,
      "stateMutability": "view",
      "type": "function"
    },
    {
      "constant": true,
      "inputs": [],
      "name": "rootNode",
      "outputs": [
        {
          "name": "",
          "type": "bytes32"
        }
      ],
      "payable": false,
      "stateMutability": "view",
      "type": "function"
    },
    {
      "inputs": [
        {
          "name": "ensAddr",
          "type": "address"
        },
        {
          "name": "node",
          "type": "bytes32"
        }
      ],
      "payable": false,
      "stateMutability": "nonpayable",
      "type": "constructor"
    },
    {
      "anonymous": false,
      "inputs": [
        {
          "indexed": false,
          "name": "owner",
          "type": "address"
        },
        {
          "indexed": false,
          "name": "label",
          "type": "bytes32"
        }
      ],
      "name": "Log",
      "type": "event"
    },
    {
      "constant": false,
      "inputs": [
        {
          "name": "label",
          "type": "bytes32"
        },
        {
          "name": "owner",
          "type": "address"
        }
      ],
      "name": "register",
      "outputs": [],
      "payable": false,
      "stateMutability": "nonpayable",
      "type": "function"
    }
  ],
  "bytecode": "0x608060405234801561001057600080fd5b506040516040806103668339810180604052604081101561003057600080fd5b810190808051906020019092919080519060200190929190505050816000806101000a81548173ffffffffffffffffffffffffffffffffffffffff021916908373ffffffffffffffffffffffffffffffffffffffff1602179055508060018190555050506102c3806100a36000396000f3fe608060405234801561001057600080fd5b506004361061004c5760003560e01c80633f15457f14610051578063af9f26e41461009b578063d22057a9146100dd578063faff50a81461012b575b600080fd5b610059610149565b604051808273ffffffffffffffffffffffffffffffffffffffff1673ffffffffffffffffffffffffffffffffffffffff16815260200191505060405180910390f35b6100c7600480360360208110156100b157600080fd5b810190808035906020019092919050505061016e565b6040518082815260200191505060405180910390f35b610129600480360360408110156100f357600080fd5b8101908080359060200190929190803573ffffffffffffffffffffffffffffffffffffffff169060200190929190505050610186565b005b610133610291565b6040518082815260200191505060405180910390f35b6000809054906101000a900473ffffffffffffffffffffffffffffffffffffffff1681565b60026020528060005260406000206000915090505481565b426002600084815260200190815260200160002054106101a557600080fd5b6312bed400420160026000848152602001908152602001600020819055506000809054906101000a900473ffffffffffffffffffffffffffffffffffffffff1673ffffffffffffffffffffffffffffffffffffffff166306ab592360015484846040518463ffffffff1660e01b8152600401808481526020018381526020018273ffffffffffffffffffffffffffffffffffffffff1673ffffffffffffffffffffffffffffffffffffffff1681526020019350505050600060405180830381600087803b15801561027557600080fd5b505af1158015610289573d6000803e3d6000fd5b505050505050565b6001548156fea165627a7a7230582080bfbe9197ba96ce2a76d0979d565c7bb0fca763b993293dd5707fffff2027600029",
  "source": "pragma solidity >=0.4.24;\n\nimport \"./ENS.sol\";\n\n/**\n * A registrar that allocates subdomains to the first person to claim them, but\n * expires registrations a fixed period after they're initially claimed.\n */\ncontract SubdomainRegistrar {\n    uint constant registrationPeriod = 520 weeks;\n\n    ENS public ens;\n    bytes32 public rootNode;\n    mapping (bytes32 => uint) public expiryTimes;\n\n    event Log(\n        address owner,\n        bytes32 label\n    );\n\n    /**\n     * Constructor.\n     * @param ensAddr The address of the ENS registry.\n     * @param node The node that this registrar administers.\n     */\n    constructor(ENS ensAddr, bytes32 node) public {\n        ens = ensAddr;\n        rootNode = node;\n    }\n\n    /**\n     * Register a name that's not currently registered\n     * @param label The hash of the label to register.\n     * @param owner The address of the new owner.\n     */\n    function register(bytes32 label, address owner) public {\n        require(expiryTimes[label] < now);\n\n        expiryTimes[label] = now + registrationPeriod;\n        ens.setSubnodeOwner(rootNode, label, owner);\n    }\n}",
  "sourcePath": "/Users/sig/Code/df/fds.js/contracts/SubdomainRegistrar.sol",
  "compiler": {
    "name": "solc",
    "version": "0.5.8+commit.23d335f2.Emscripten.clang"
  },
  "schemaVersion": "3.0.11",
  "updatedAt": "2019-09-10T12:40:10.361Z",
  "devdoc": {
    "methods": {
      "constructor": {
        "params": {
          "ensAddr": "The address of the ENS registry.",
          "node": "The node that this registrar administers."
        }
      },
      "register(bytes32,address)": {
        "params": {
          "label": "The hash of the label to register.",
          "owner": "The address of the new owner."
        }
      }
    }
  },
  "userdoc": {
    "methods": {
      "constructor": "Constructor.",
      "register(bytes32,address)": {
        "notice": "Register a name that's not currently registered"
      }
    },
    "notice": "A registrar that allocates subdomains to the first person to claim them, but expires registrations a fixed period after they're initially claimed."
  }
}